{
  "_format": "hh-sol-artifact-1",
  "contractName": "ValNft2",
  "sourceName": "contracts/ValNft2.sol",
  "abi": [
    {
      "inputs": [
        {
          "internalType": "string",
          "name": "_name",
          "type": "string"
        },
        {
          "internalType": "string",
          "name": "_symbol",
          "type": "string"
        },
        {
          "internalType": "string",
          "name": "_initBaseURI",
          "type": "string"
        },
        {
          "internalType": "string",
          "name": "_initNotRevealedUri",
          "type": "string"
        }
      ],
      "stateMutability": "nonpayable",
      "type": "constructor"
    },
    {
      "anonymous": false,
      "inputs": [
        {
          "indexed": true,
          "internalType": "address",
          "name": "owner",
          "type": "address"
        },
        {
          "indexed": true,
          "internalType": "address",
          "name": "approved",
          "type": "address"
        },
        {
          "indexed": true,
          "internalType": "uint256",
          "name": "tokenId",
          "type": "uint256"
        }
      ],
      "name": "Approval",
      "type": "event"
    },
    {
      "anonymous": false,
      "inputs": [
        {
          "indexed": true,
          "internalType": "address",
          "name": "owner",
          "type": "address"
        },
        {
          "indexed": true,
          "internalType": "address",
          "name": "operator",
          "type": "address"
        },
        {
          "indexed": false,
          "internalType": "bool",
          "name": "approved",
          "type": "bool"
        }
      ],
      "name": "ApprovalForAll",
      "type": "event"
    },
    {
      "anonymous": false,
      "inputs": [
        {
          "indexed": true,
          "internalType": "address",
          "name": "previousOwner",
          "type": "address"
        },
        {
          "indexed": true,
          "internalType": "address",
          "name": "newOwner",
          "type": "address"
        }
      ],
      "name": "OwnershipTransferred",
      "type": "event"
    },
    {
      "anonymous": false,
      "inputs": [
        {
          "indexed": true,
          "internalType": "address",
          "name": "from",
          "type": "address"
        },
        {
          "indexed": true,
          "internalType": "address",
          "name": "to",
          "type": "address"
        },
        {
          "indexed": true,
          "internalType": "uint256",
          "name": "tokenId",
          "type": "uint256"
        }
      ],
      "name": "Transfer",
      "type": "event"
    },
    {
      "inputs": [
        {
          "internalType": "address",
          "name": "",
          "type": "address"
        }
      ],
      "name": "addressMintedBalance",
      "outputs": [
        {
          "internalType": "uint256",
          "name": "",
          "type": "uint256"
        }
      ],
      "stateMutability": "view",
      "type": "function"
    },
    {
      "inputs": [
        {
          "internalType": "address",
          "name": "to",
          "type": "address"
        },
        {
          "internalType": "uint256",
          "name": "tokenId",
          "type": "uint256"
        }
      ],
      "name": "approve",
      "outputs": [],
      "stateMutability": "nonpayable",
      "type": "function"
    },
    {
      "inputs": [
        {
          "internalType": "address",
          "name": "owner",
          "type": "address"
        }
      ],
      "name": "balanceOf",
      "outputs": [
        {
          "internalType": "uint256",
          "name": "",
          "type": "uint256"
        }
      ],
      "stateMutability": "view",
      "type": "function"
    },
    {
      "inputs": [],
      "name": "baseExtension",
      "outputs": [
        {
          "internalType": "string",
          "name": "",
          "type": "string"
        }
      ],
      "stateMutability": "view",
      "type": "function"
    },
    {
      "inputs": [],
      "name": "baseURI",
      "outputs": [
        {
          "internalType": "string",
          "name": "",
          "type": "string"
        }
      ],
      "stateMutability": "view",
      "type": "function"
    },
    {
      "inputs": [],
      "name": "cost",
      "outputs": [
        {
          "internalType": "uint256",
          "name": "",
          "type": "uint256"
        }
      ],
      "stateMutability": "view",
      "type": "function"
    },
    {
      "inputs": [
        {
          "internalType": "uint256",
          "name": "tokenId",
          "type": "uint256"
        }
      ],
      "name": "getApproved",
      "outputs": [
        {
          "internalType": "address",
          "name": "",
          "type": "address"
        }
      ],
      "stateMutability": "view",
      "type": "function"
    },
    {
      "inputs": [
        {
          "internalType": "address",
          "name": "owner",
          "type": "address"
        },
        {
          "internalType": "address",
          "name": "operator",
          "type": "address"
        }
      ],
      "name": "isApprovedForAll",
      "outputs": [
        {
          "internalType": "bool",
          "name": "",
          "type": "bool"
        }
      ],
      "stateMutability": "view",
      "type": "function"
    },
    {
      "inputs": [],
      "name": "maxMintAmount",
      "outputs": [
        {
          "internalType": "uint256",
          "name": "",
          "type": "uint256"
        }
      ],
      "stateMutability": "view",
      "type": "function"
    },
    {
      "inputs": [],
      "name": "maxSupply",
      "outputs": [
        {
          "internalType": "uint256",
          "name": "",
          "type": "uint256"
        }
      ],
      "stateMutability": "view",
      "type": "function"
    },
    {
      "inputs": [
        {
          "internalType": "uint256",
          "name": "_mintAmount",
          "type": "uint256"
        }
      ],
      "name": "mint",
      "outputs": [],
      "stateMutability": "payable",
      "type": "function"
    },
    {
      "inputs": [
        {
          "internalType": "bytes32[]",
          "name": "merkleProof",
          "type": "bytes32[]"
        }
      ],
      "name": "mintWhitelist",
      "outputs": [],
      "stateMutability": "payable",
      "type": "function"
    },
    {
      "inputs": [],
      "name": "name",
      "outputs": [
        {
          "internalType": "string",
          "name": "",
          "type": "string"
        }
      ],
      "stateMutability": "view",
      "type": "function"
    },
    {
      "inputs": [],
      "name": "nftPerAddressLimit",
      "outputs": [
        {
          "internalType": "uint256",
          "name": "",
          "type": "uint256"
        }
      ],
      "stateMutability": "view",
      "type": "function"
    },
    {
      "inputs": [],
      "name": "notRevealedUri",
      "outputs": [
        {
          "internalType": "string",
          "name": "",
          "type": "string"
        }
      ],
      "stateMutability": "view",
      "type": "function"
    },
    {
      "inputs": [],
      "name": "owner",
      "outputs": [
        {
          "internalType": "address",
          "name": "",
          "type": "address"
        }
      ],
      "stateMutability": "view",
      "type": "function"
    },
    {
      "inputs": [
        {
          "internalType": "uint256",
          "name": "tokenId",
          "type": "uint256"
        }
      ],
      "name": "ownerOf",
      "outputs": [
        {
          "internalType": "address",
          "name": "",
          "type": "address"
        }
      ],
      "stateMutability": "view",
      "type": "function"
    },
    {
      "inputs": [
        {
          "internalType": "bool",
          "name": "_state",
          "type": "bool"
        }
      ],
      "name": "pause",
      "outputs": [],
      "stateMutability": "nonpayable",
      "type": "function"
    },
    {
      "inputs": [],
      "name": "paused",
      "outputs": [
        {
          "internalType": "bool",
          "name": "",
          "type": "bool"
        }
      ],
      "stateMutability": "view",
      "type": "function"
    },
    {
      "inputs": [],
      "name": "renounceOwnership",
      "outputs": [],
      "stateMutability": "nonpayable",
      "type": "function"
    },
    {
      "inputs": [],
      "name": "reveal",
      "outputs": [],
      "stateMutability": "nonpayable",
      "type": "function"
    },
    {
      "inputs": [],
      "name": "revealed",
      "outputs": [
        {
          "internalType": "bool",
          "name": "",
          "type": "bool"
        }
      ],
      "stateMutability": "view",
      "type": "function"
    },
    {
      "inputs": [
        {
          "internalType": "address",
          "name": "from",
          "type": "address"
        },
        {
          "internalType": "address",
          "name": "to",
          "type": "address"
        },
        {
          "internalType": "uint256",
          "name": "tokenId",
          "type": "uint256"
        }
      ],
      "name": "safeTransferFrom",
      "outputs": [],
      "stateMutability": "nonpayable",
      "type": "function"
    },
    {
      "inputs": [
        {
          "internalType": "address",
          "name": "from",
          "type": "address"
        },
        {
          "internalType": "address",
          "name": "to",
          "type": "address"
        },
        {
          "internalType": "uint256",
          "name": "tokenId",
          "type": "uint256"
        },
        {
          "internalType": "bytes",
          "name": "_data",
          "type": "bytes"
        }
      ],
      "name": "safeTransferFrom",
      "outputs": [],
      "stateMutability": "nonpayable",
      "type": "function"
    },
    {
      "inputs": [
        {
          "internalType": "address",
          "name": "operator",
          "type": "address"
        },
        {
          "internalType": "bool",
          "name": "approved",
          "type": "bool"
        }
      ],
      "name": "setApprovalForAll",
      "outputs": [],
      "stateMutability": "nonpayable",
      "type": "function"
    },
    {
      "inputs": [
        {
          "internalType": "string",
          "name": "_newBaseExtension",
          "type": "string"
        }
      ],
      "name": "setBaseExtension",
      "outputs": [],
      "stateMutability": "nonpayable",
      "type": "function"
    },
    {
      "inputs": [
        {
          "internalType": "string",
          "name": "_newBaseURI",
          "type": "string"
        }
      ],
      "name": "setBaseURI",
      "outputs": [],
      "stateMutability": "nonpayable",
      "type": "function"
    },
    {
      "inputs": [
        {
          "internalType": "uint256",
          "name": "_newCost",
          "type": "uint256"
        }
      ],
      "name": "setCost",
      "outputs": [],
      "stateMutability": "nonpayable",
      "type": "function"
    },
    {
      "inputs": [
        {
          "internalType": "uint256",
          "name": "_limit",
          "type": "uint256"
        }
      ],
      "name": "setNftPerAddressLimit",
      "outputs": [],
      "stateMutability": "nonpayable",
      "type": "function"
    },
    {
      "inputs": [
        {
          "internalType": "string",
          "name": "_notRevealedURI",
          "type": "string"
        }
      ],
      "name": "setNotRevealedURI",
      "outputs": [],
      "stateMutability": "nonpayable",
      "type": "function"
    },
    {
      "inputs": [
        {
          "internalType": "uint256",
          "name": "_newCost",
          "type": "uint256"
        }
      ],
      "name": "setWhitelistCost",
      "outputs": [],
      "stateMutability": "nonpayable",
      "type": "function"
    },
    {
      "inputs": [
        {
          "internalType": "bytes32",
          "name": "merkleRoot",
          "type": "bytes32"
        }
      ],
      "name": "setWhitelistMerkleRoot",
      "outputs": [],
      "stateMutability": "nonpayable",
      "type": "function"
    },
    {
      "inputs": [
        {
          "internalType": "uint256",
          "name": "_newmaxMintAmount",
          "type": "uint256"
        }
      ],
      "name": "setmaxMintAmount",
      "outputs": [],
      "stateMutability": "nonpayable",
      "type": "function"
    },
    {
      "inputs": [
        {
          "internalType": "bytes4",
          "name": "interfaceId",
          "type": "bytes4"
        }
      ],
      "name": "supportsInterface",
      "outputs": [
        {
          "internalType": "bool",
          "name": "",
          "type": "bool"
        }
      ],
      "stateMutability": "view",
      "type": "function"
    },
    {
      "inputs": [],
      "name": "symbol",
      "outputs": [
        {
          "internalType": "string",
          "name": "",
          "type": "string"
        }
      ],
      "stateMutability": "view",
      "type": "function"
    },
    {
      "inputs": [
        {
          "internalType": "uint256",
          "name": "index",
          "type": "uint256"
        }
      ],
      "name": "tokenByIndex",
      "outputs": [
        {
          "internalType": "uint256",
          "name": "",
          "type": "uint256"
        }
      ],
      "stateMutability": "view",
      "type": "function"
    },
    {
      "inputs": [
        {
          "internalType": "address",
          "name": "owner",
          "type": "address"
        },
        {
          "internalType": "uint256",
          "name": "index",
          "type": "uint256"
        }
      ],
      "name": "tokenOfOwnerByIndex",
      "outputs": [
        {
          "internalType": "uint256",
          "name": "",
          "type": "uint256"
        }
      ],
      "stateMutability": "view",
      "type": "function"
    },
    {
      "inputs": [
        {
          "internalType": "uint256",
          "name": "tokenId",
          "type": "uint256"
        }
      ],
      "name": "tokenURI",
      "outputs": [
        {
          "internalType": "string",
          "name": "",
          "type": "string"
        }
      ],
      "stateMutability": "view",
      "type": "function"
    },
    {
      "inputs": [],
      "name": "totalSupply",
      "outputs": [
        {
          "internalType": "uint256",
          "name": "",
          "type": "uint256"
        }
      ],
      "stateMutability": "view",
      "type": "function"
    },
    {
      "inputs": [
        {
          "internalType": "address",
          "name": "from",
          "type": "address"
        },
        {
          "internalType": "address",
          "name": "to",
          "type": "address"
        },
        {
          "internalType": "uint256",
          "name": "tokenId",
          "type": "uint256"
        }
      ],
      "name": "transferFrom",
      "outputs": [],
      "stateMutability": "nonpayable",
      "type": "function"
    },
    {
      "inputs": [
        {
          "internalType": "address",
          "name": "newOwner",
          "type": "address"
        }
      ],
      "name": "transferOwnership",
      "outputs": [],
      "stateMutability": "nonpayable",
      "type": "function"
    },
    {
      "inputs": [
        {
          "internalType": "address",
          "name": "_owner",
          "type": "address"
        }
      ],
      "name": "walletOfOwner",
      "outputs": [
        {
          "internalType": "uint256[]",
          "name": "",
          "type": "uint256[]"
        }
      ],
      "stateMutability": "view",
      "type": "function"
    },
    {
      "inputs": [],
      "name": "whiteListCost",
      "outputs": [
        {
          "internalType": "uint256",
          "name": "",
          "type": "uint256"
        }
      ],
      "stateMutability": "view",
      "type": "function"
    },
    {
      "inputs": [],
      "name": "whitelistMerkleRoot",
      "outputs": [
        {
          "internalType": "bytes32",
          "name": "",
          "type": "bytes32"
        }
      ],
      "stateMutability": "view",
      "type": "function"
    },
    {
      "inputs": [],
      "name": "withdraw",
      "outputs": [],
      "stateMutability": "payable",
      "type": "function"
    }
  ],
  "bytecode": "0x60806040526040518060400160405280600581526020017f2e6a736f6e000000000000000000000000000000000000000000000000000000815250600c908051906020019062000051929190620003b0565b5066038d7ea4c68000600e556611c37937e08000600f556014601055600560115560056012556000601360006101000a81548160ff0219169083151502179055506000601360016101000a81548160ff021916908315150217905550348015620000ba57600080fd5b50604051620058ab380380620058ab8339818101604052810190620000e09190620004d2565b83838160009080519060200190620000fa929190620003b0565b50806001908051906020019062000113929190620003b0565b505050620001366200012a6200016260201b60201c565b6200016a60201b60201c565b62000147826200023060201b60201c565b6200015881620002db60201b60201c565b5050505062000795565b600033905090565b6000600a60009054906101000a900473ffffffffffffffffffffffffffffffffffffffff16905081600a60006101000a81548173ffffffffffffffffffffffffffffffffffffffff021916908373ffffffffffffffffffffffffffffffffffffffff1602179055508173ffffffffffffffffffffffffffffffffffffffff168173ffffffffffffffffffffffffffffffffffffffff167f8be0079c531659141344cd1fd0a4f28419497f9722a3daafe3b4186f6b6457e060405160405180910390a35050565b620002406200016260201b60201c565b73ffffffffffffffffffffffffffffffffffffffff16620002666200038660201b60201c565b73ffffffffffffffffffffffffffffffffffffffff1614620002bf576040517f08c379a0000000000000000000000000000000000000000000000000000000008152600401620002b690620005c9565b60405180910390fd5b80600b9080519060200190620002d7929190620003b0565b5050565b620002eb6200016260201b60201c565b73ffffffffffffffffffffffffffffffffffffffff16620003116200038660201b60201c565b73ffffffffffffffffffffffffffffffffffffffff16146200036a576040517f08c379a00000000000000000000000000000000000000000000000000000000081526004016200036190620005c9565b60405180910390fd5b80600d908051906020019062000382929190620003b0565b5050565b6000600a60009054906101000a900473ffffffffffffffffffffffffffffffffffffffff16905090565b828054620003be9062000691565b90600052602060002090601f016020900481019282620003e257600085556200042e565b82601f10620003fd57805160ff19168380011785556200042e565b828001600101855582156200042e579182015b828111156200042d57825182559160200191906001019062000410565b5b5090506200043d919062000441565b5090565b5b808211156200045c57600081600090555060010162000442565b5090565b600062000477620004718462000614565b620005eb565b9050828152602081018484840111156200049057600080fd5b6200049d8482856200065b565b509392505050565b600082601f830112620004b757600080fd5b8151620004c984826020860162000460565b91505092915050565b60008060008060808587031215620004e957600080fd5b600085015167ffffffffffffffff8111156200050457600080fd5b6200051287828801620004a5565b945050602085015167ffffffffffffffff8111156200053057600080fd5b6200053e87828801620004a5565b935050604085015167ffffffffffffffff8111156200055c57600080fd5b6200056a87828801620004a5565b925050606085015167ffffffffffffffff8111156200058857600080fd5b6200059687828801620004a5565b91505092959194509250565b6000620005b16020836200064a565b9150620005be826200076c565b602082019050919050565b60006020820190508181036000830152620005e481620005a2565b9050919050565b6000620005f76200060a565b9050620006058282620006c7565b919050565b6000604051905090565b600067ffffffffffffffff8211156200063257620006316200072c565b5b6200063d826200075b565b9050602081019050919050565b600082825260208201905092915050565b60005b838110156200067b5780820151818401526020810190506200065e565b838111156200068b576000848401525b50505050565b60006002820490506001821680620006aa57607f821691505b60208210811415620006c157620006c0620006fd565b5b50919050565b620006d2826200075b565b810181811067ffffffffffffffff82111715620006f457620006f36200072c565b5b80604052505050565b7f4e487b7100000000000000000000000000000000000000000000000000000000600052602260045260246000fd5b7f4e487b7100000000000000000000000000000000000000000000000000000000600052604160045260246000fd5b6000601f19601f8301169050919050565b7f4f776e61626c653a2063616c6c6572206973206e6f7420746865206f776e6572600082015250565b61510680620007a56000396000f3fe6080604052600436106102725760003560e01c80636c0360eb1161014f578063b88d4fde116100c1578063d49479eb1161007a578063d49479eb14610929578063d5abeb0114610952578063da3ef23f1461097d578063e985e9c5146109a6578063f2c4ce1e146109e3578063f2fde38b14610a0c57610272565b8063b88d4fde1461081b578063ba7d2c7614610844578063bd32fb661461086f578063c668286214610898578063c87b56dd146108c3578063d0eb26b01461090057610272565b80639257e044116101135780639257e0441461073e57806395d89b4114610769578063a0712d6814610794578063a22cb465146107b0578063a475b5dd146107d9578063aa98e0c6146107f057610272565b80636c0360eb1461066b57806370a0823114610696578063715018a6146106d35780637f00c7a6146106ea5780638da5cb5b1461071357610272565b80632f745c59116101e857806344d84381116101ac57806344d84381146105565780634f6ccce71461057257806351830227146105af57806355f804b3146105da5780635c975abb146106035780636352211e1461062e57610272565b80632f745c59146104805780633ccfd60b146104bd57806342842e0e146104c7578063438b6300146104f057806344a0d68a1461052d57610272565b8063095ea7b31161023a578063095ea7b31461037057806313faede61461039957806318160ddd146103c457806318cae269146103ef578063239c70ae1461042c57806323b872dd1461045757610272565b806301ffc9a71461027757806302329a29146102b457806306fdde03146102dd578063081812fc14610308578063081c8c4414610345575b600080fd5b34801561028357600080fd5b5061029e60048036038101906102999190613a8b565b610a35565b6040516102ab91906141b9565b60405180910390f35b3480156102c057600080fd5b506102db60048036038101906102d69190613a39565b610aaf565b005b3480156102e957600080fd5b506102f2610b48565b6040516102ff91906141ef565b60405180910390f35b34801561031457600080fd5b5061032f600480360381019061032a9190613b1e565b610bda565b60405161033c9190614130565b60405180910390f35b34801561035157600080fd5b5061035a610c5f565b60405161036791906141ef565b60405180910390f35b34801561037c57600080fd5b50610397600480360381019061039291906139b8565b610ced565b005b3480156103a557600080fd5b506103ae610e05565b6040516103bb9190614531565b60405180910390f35b3480156103d057600080fd5b506103d9610e0b565b6040516103e69190614531565b60405180910390f35b3480156103fb57600080fd5b506104166004803603810190610411919061384d565b610e18565b6040516104239190614531565b60405180910390f35b34801561043857600080fd5b50610441610e30565b60405161044e9190614531565b60405180910390f35b34801561046357600080fd5b5061047e600480360381019061047991906138b2565b610e36565b005b34801561048c57600080fd5b506104a760048036038101906104a291906139b8565b610e96565b6040516104b49190614531565b60405180910390f35b6104c5610f3b565b005b3480156104d357600080fd5b506104ee60048036038101906104e991906138b2565b611037565b005b3480156104fc57600080fd5b506105176004803603810190610512919061384d565b611057565b6040516105249190614197565b60405180910390f35b34801561053957600080fd5b50610554600480360381019061054f9190613b1e565b611151565b005b610570600480360381019061056b91906139f4565b6111d7565b005b34801561057e57600080fd5b5061059960048036038101906105949190613b1e565b61135c565b6040516105a69190614531565b60405180910390f35b3480156105bb57600080fd5b506105c46113f3565b6040516105d191906141b9565b60405180910390f35b3480156105e657600080fd5b5061060160048036038101906105fc9190613add565b611406565b005b34801561060f57600080fd5b5061061861149c565b60405161062591906141b9565b60405180910390f35b34801561063a57600080fd5b5061065560048036038101906106509190613b1e565b6114af565b6040516106629190614130565b60405180910390f35b34801561067757600080fd5b50610680611561565b60405161068d91906141ef565b60405180910390f35b3480156106a257600080fd5b506106bd60048036038101906106b8919061384d565b6115ef565b6040516106ca9190614531565b60405180910390f35b3480156106df57600080fd5b506106e86116a7565b005b3480156106f657600080fd5b50610711600480360381019061070c9190613b1e565b61172f565b005b34801561071f57600080fd5b506107286117b5565b6040516107359190614130565b60405180910390f35b34801561074a57600080fd5b506107536117df565b6040516107609190614531565b60405180910390f35b34801561077557600080fd5b5061077e6117e5565b60405161078b91906141ef565b60405180910390f35b6107ae60048036038101906107a99190613b1e565b611877565b005b3480156107bc57600080fd5b506107d760048036038101906107d2919061397c565b611ac6565b005b3480156107e557600080fd5b506107ee611adc565b005b3480156107fc57600080fd5b50610805611b75565b60405161081291906141d4565b60405180910390f35b34801561082757600080fd5b50610842600480360381019061083d9190613901565b611b7b565b005b34801561085057600080fd5b50610859611bdd565b6040516108669190614531565b60405180910390f35b34801561087b57600080fd5b5061089660048036038101906108919190613a62565b611be3565b005b3480156108a457600080fd5b506108ad611c69565b6040516108ba91906141ef565b60405180910390f35b3480156108cf57600080fd5b506108ea60048036038101906108e59190613b1e565b611cf7565b6040516108f791906141ef565b60405180910390f35b34801561090c57600080fd5b5061092760048036038101906109229190613b1e565b611e50565b005b34801561093557600080fd5b50610950600480360381019061094b9190613b1e565b611ed6565b005b34801561095e57600080fd5b50610967611f5c565b6040516109749190614531565b60405180910390f35b34801561098957600080fd5b506109a4600480360381019061099f9190613add565b611f62565b005b3480156109b257600080fd5b506109cd60048036038101906109c89190613876565b611ff8565b6040516109da91906141b9565b60405180910390f35b3480156109ef57600080fd5b50610a0a6004803603810190610a059190613add565b61208c565b005b348015610a1857600080fd5b50610a336004803603810190610a2e919061384d565b612122565b005b60007f780e9d63000000000000000000000000000000000000000000000000000000007bffffffffffffffffffffffffffffffffffffffffffffffffffffffff1916827bffffffffffffffffffffffffffffffffffffffffffffffffffffffff19161480610aa85750610aa78261221a565b5b9050919050565b610ab76122fc565b73ffffffffffffffffffffffffffffffffffffffff16610ad56117b5565b73ffffffffffffffffffffffffffffffffffffffff1614610b2b576040517f08c379a0000000000000000000000000000000000000000000000000000000008152600401610b2290614411565b60405180910390fd5b80601360006101000a81548160ff02191690831515021790555050565b606060008054610b5790614844565b80601f0160208091040260200160405190810160405280929190818152602001828054610b8390614844565b8015610bd05780601f10610ba557610100808354040283529160200191610bd0565b820191906000526020600020905b815481529060010190602001808311610bb357829003601f168201915b5050505050905090565b6000610be582612304565b610c24576040517f08c379a0000000000000000000000000000000000000000000000000000000008152600401610c1b906143f1565b60405180910390fd5b6004600083815260200190815260200160002060009054906101000a900473ffffffffffffffffffffffffffffffffffffffff169050919050565b600d8054610c6c90614844565b80601f0160208091040260200160405190810160405280929190818152602001828054610c9890614844565b8015610ce55780601f10610cba57610100808354040283529160200191610ce5565b820191906000526020600020905b815481529060010190602001808311610cc857829003601f168201915b505050505081565b6000610cf8826114af565b90508073ffffffffffffffffffffffffffffffffffffffff168373ffffffffffffffffffffffffffffffffffffffff161415610d69576040517f08c379a0000000000000000000000000000000000000000000000000000000008152600401610d6090614471565b60405180910390fd5b8073ffffffffffffffffffffffffffffffffffffffff16610d886122fc565b73ffffffffffffffffffffffffffffffffffffffff161480610db75750610db681610db16122fc565b611ff8565b5b610df6576040517f08c379a0000000000000000000000000000000000000000000000000000000008152600401610ded90614331565b60405180910390fd5b610e008383612370565b505050565b600e5481565b6000600880549050905090565b60146020528060005260406000206000915090505481565b60115481565b610e47610e416122fc565b82612429565b610e86576040517f08c379a0000000000000000000000000000000000000000000000000000000008152600401610e7d906144b1565b60405180910390fd5b610e91838383612507565b505050565b6000610ea1836115ef565b8210610ee2576040517f08c379a0000000000000000000000000000000000000000000000000000000008152600401610ed990614211565b60405180910390fd5b600660008473ffffffffffffffffffffffffffffffffffffffff1673ffffffffffffffffffffffffffffffffffffffff168152602001908152602001600020600083815260200190815260200160002054905092915050565b610f436122fc565b73ffffffffffffffffffffffffffffffffffffffff16610f616117b5565b73ffffffffffffffffffffffffffffffffffffffff1614610fb7576040517f08c379a0000000000000000000000000000000000000000000000000000000008152600401610fae90614411565b60405180910390fd5b6000610fc16117b5565b73ffffffffffffffffffffffffffffffffffffffff1647604051610fe49061411b565b60006040518083038185875af1925050503d8060008114611021576040519150601f19603f3d011682016040523d82523d6000602084013e611026565b606091505b505090508061103457600080fd5b50565b61105283838360405180602001604052806000815250611b7b565b505050565b60606000611064836115ef565b905060008167ffffffffffffffff8111156110a8577f4e487b7100000000000000000000000000000000000000000000000000000000600052604160045260246000fd5b6040519080825280602002602001820160405280156110d65781602001602082028036833780820191505090505b50905060005b82811015611146576110ee8582610e96565b828281518110611127577f4e487b7100000000000000000000000000000000000000000000000000000000600052603260045260246000fd5b602002602001018181525050808061113e906148a7565b9150506110dc565b508092505050919050565b6111596122fc565b73ffffffffffffffffffffffffffffffffffffffff166111776117b5565b73ffffffffffffffffffffffffffffffffffffffff16146111cd576040517f08c379a00000000000000000000000000000000000000000000000000000000081526004016111c490614411565b60405180910390fd5b80600e8190555050565b818160155461124e838380806020026020016040519081016040528093929190818152602001838360200280828437600081840152601f19601f82011690508083019250505050505050823360405160200161123391906140cf565b6040516020818303038152906040528051906020012061276e565b61128d576040517f08c379a000000000000000000000000000000000000000000000000000000000815260040161128490614311565b60405180910390fd5b600f54600134818361129f91906146f6565b146112df576040517f08c379a00000000000000000000000000000000000000000000000000000000081526004016112d6906144f1565b60405180910390fd5b60006112e9610e0b565b90506010546001826112fb919061466f565b111561133c576040517f08c379a000000000000000000000000000000000000000000000000000000000815260040161133390614391565b60405180910390fd5b6113523360018361134d919061466f565b612785565b5050505050505050565b6000611366610e0b565b82106113a7576040517f08c379a000000000000000000000000000000000000000000000000000000000815260040161139e906144d1565b60405180910390fd5b600882815481106113e1577f4e487b7100000000000000000000000000000000000000000000000000000000600052603260045260246000fd5b90600052602060002001549050919050565b601360019054906101000a900460ff1681565b61140e6122fc565b73ffffffffffffffffffffffffffffffffffffffff1661142c6117b5565b73ffffffffffffffffffffffffffffffffffffffff1614611482576040517f08c379a000000000000000000000000000000000000000000000000000000000815260040161147990614411565b60405180910390fd5b80600b9080519060200190611498929190613612565b5050565b601360009054906101000a900460ff1681565b6000806002600084815260200190815260200160002060009054906101000a900473ffffffffffffffffffffffffffffffffffffffff169050600073ffffffffffffffffffffffffffffffffffffffff168173ffffffffffffffffffffffffffffffffffffffff161415611558576040517f08c379a000000000000000000000000000000000000000000000000000000000815260040161154f90614371565b60405180910390fd5b80915050919050565b600b805461156e90614844565b80601f016020809104026020016040519081016040528092919081815260200182805461159a90614844565b80156115e75780601f106115bc576101008083540402835291602001916115e7565b820191906000526020600020905b8154815290600101906020018083116115ca57829003601f168201915b505050505081565b60008073ffffffffffffffffffffffffffffffffffffffff168273ffffffffffffffffffffffffffffffffffffffff161415611660576040517f08c379a000000000000000000000000000000000000000000000000000000000815260040161165790614351565b60405180910390fd5b600360008373ffffffffffffffffffffffffffffffffffffffff1673ffffffffffffffffffffffffffffffffffffffff168152602001908152602001600020549050919050565b6116af6122fc565b73ffffffffffffffffffffffffffffffffffffffff166116cd6117b5565b73ffffffffffffffffffffffffffffffffffffffff1614611723576040517f08c379a000000000000000000000000000000000000000000000000000000000815260040161171a90614411565b60405180910390fd5b61172d60006127a3565b565b6117376122fc565b73ffffffffffffffffffffffffffffffffffffffff166117556117b5565b73ffffffffffffffffffffffffffffffffffffffff16146117ab576040517f08c379a00000000000000000000000000000000000000000000000000000000081526004016117a290614411565b60405180910390fd5b8060118190555050565b6000600a60009054906101000a900473ffffffffffffffffffffffffffffffffffffffff16905090565b600f5481565b6060600180546117f490614844565b80601f016020809104026020016040519081016040528092919081815260200182805461182090614844565b801561186d5780601f106118425761010080835404028352916020019161186d565b820191906000526020600020905b81548152906001019060200180831161185057829003601f168201915b5050505050905090565b601360009054906101000a900460ff16156118c7576040517f08c379a00000000000000000000000000000000000000000000000000000000081526004016118be90614431565b60405180910390fd5b60006118d1610e0b565b905060008211611916576040517f08c379a000000000000000000000000000000000000000000000000000000000815260040161190d90614511565b60405180910390fd5b60115482111561195b576040517f08c379a0000000000000000000000000000000000000000000000000000000008152600401611952906143b1565b60405180910390fd5b601054828261196a919061466f565b11156119ab576040517f08c379a00000000000000000000000000000000000000000000000000000000081526004016119a290614391565b60405180910390fd5b6119b36117b5565b73ffffffffffffffffffffffffffffffffffffffff163373ffffffffffffffffffffffffffffffffffffffff1614611a365781600e546119f391906146f6565b341015611a35576040517f08c379a0000000000000000000000000000000000000000000000000000000008152600401611a2c90614491565b60405180910390fd5b5b6000600190505b828111611ac157601460003373ffffffffffffffffffffffffffffffffffffffff1673ffffffffffffffffffffffffffffffffffffffff1681526020019081526020016000206000815480929190611a94906148a7565b9190505550611aae338284611aa9919061466f565b612785565b8080611ab9906148a7565b915050611a3d565b505050565b611ad8611ad16122fc565b8383612869565b5050565b611ae46122fc565b73ffffffffffffffffffffffffffffffffffffffff16611b026117b5565b73ffffffffffffffffffffffffffffffffffffffff1614611b58576040517f08c379a0000000000000000000000000000000000000000000000000000000008152600401611b4f90614411565b60405180910390fd5b6001601360016101000a81548160ff021916908315150217905550565b60155481565b611b8c611b866122fc565b83612429565b611bcb576040517f08c379a0000000000000000000000000000000000000000000000000000000008152600401611bc2906144b1565b60405180910390fd5b611bd7848484846129d6565b50505050565b60125481565b611beb6122fc565b73ffffffffffffffffffffffffffffffffffffffff16611c096117b5565b73ffffffffffffffffffffffffffffffffffffffff1614611c5f576040517f08c379a0000000000000000000000000000000000000000000000000000000008152600401611c5690614411565b60405180910390fd5b8060158190555050565b600c8054611c7690614844565b80601f0160208091040260200160405190810160405280929190818152602001828054611ca290614844565b8015611cef5780601f10611cc457610100808354040283529160200191611cef565b820191906000526020600020905b815481529060010190602001808311611cd257829003601f168201915b505050505081565b6060611d0282612304565b611d41576040517f08c379a0000000000000000000000000000000000000000000000000000000008152600401611d3890614451565b60405180910390fd5b60001515601360019054906101000a900460ff1615151415611def57600d8054611d6a90614844565b80601f0160208091040260200160405190810160405280929190818152602001828054611d9690614844565b8015611de35780601f10611db857610100808354040283529160200191611de3565b820191906000526020600020905b815481529060010190602001808311611dc657829003601f168201915b50505050509050611e4b565b6000611df9612a32565b90506000815111611e195760405180602001604052806000815250611e47565b80611e2384612ac4565b600c604051602001611e37939291906140ea565b6040516020818303038152906040525b9150505b919050565b611e586122fc565b73ffffffffffffffffffffffffffffffffffffffff16611e766117b5565b73ffffffffffffffffffffffffffffffffffffffff1614611ecc576040517f08c379a0000000000000000000000000000000000000000000000000000000008152600401611ec390614411565b60405180910390fd5b8060128190555050565b611ede6122fc565b73ffffffffffffffffffffffffffffffffffffffff16611efc6117b5565b73ffffffffffffffffffffffffffffffffffffffff1614611f52576040517f08c379a0000000000000000000000000000000000000000000000000000000008152600401611f4990614411565b60405180910390fd5b80600f8190555050565b60105481565b611f6a6122fc565b73ffffffffffffffffffffffffffffffffffffffff16611f886117b5565b73ffffffffffffffffffffffffffffffffffffffff1614611fde576040517f08c379a0000000000000000000000000000000000000000000000000000000008152600401611fd590614411565b60405180910390fd5b80600c9080519060200190611ff4929190613612565b5050565b6000600560008473ffffffffffffffffffffffffffffffffffffffff1673ffffffffffffffffffffffffffffffffffffffff16815260200190815260200160002060008373ffffffffffffffffffffffffffffffffffffffff1673ffffffffffffffffffffffffffffffffffffffff16815260200190815260200160002060009054906101000a900460ff16905092915050565b6120946122fc565b73ffffffffffffffffffffffffffffffffffffffff166120b26117b5565b73ffffffffffffffffffffffffffffffffffffffff1614612108576040517f08c379a00000000000000000000000000000000000000000000000000000000081526004016120ff90614411565b60405180910390fd5b80600d908051906020019061211e929190613612565b5050565b61212a6122fc565b73ffffffffffffffffffffffffffffffffffffffff166121486117b5565b73ffffffffffffffffffffffffffffffffffffffff161461219e576040517f08c379a000000000000000000000000000000000000000000000000000000000815260040161219590614411565b60405180910390fd5b600073ffffffffffffffffffffffffffffffffffffffff168173ffffffffffffffffffffffffffffffffffffffff16141561220e576040517f08c379a000000000000000000000000000000000000000000000000000000000815260040161220590614251565b60405180910390fd5b612217816127a3565b50565b60007f80ac58cd000000000000000000000000000000000000000000000000000000007bffffffffffffffffffffffffffffffffffffffffffffffffffffffff1916827bffffffffffffffffffffffffffffffffffffffffffffffffffffffff191614806122e557507f5b5e139f000000000000000000000000000000000000000000000000000000007bffffffffffffffffffffffffffffffffffffffffffffffffffffffff1916827bffffffffffffffffffffffffffffffffffffffffffffffffffffffff1916145b806122f557506122f482612c71565b5b9050919050565b600033905090565b60008073ffffffffffffffffffffffffffffffffffffffff166002600084815260200190815260200160002060009054906101000a900473ffffffffffffffffffffffffffffffffffffffff1673ffffffffffffffffffffffffffffffffffffffff1614159050919050565b816004600083815260200190815260200160002060006101000a81548173ffffffffffffffffffffffffffffffffffffffff021916908373ffffffffffffffffffffffffffffffffffffffff160217905550808273ffffffffffffffffffffffffffffffffffffffff166123e3836114af565b73ffffffffffffffffffffffffffffffffffffffff167f8c5be1e5ebec7d5bd14f71427d1e84f3dd0314c0f7b2291e5b200ac8c7c3b92560405160405180910390a45050565b600061243482612304565b612473576040517f08c379a000000000000000000000000000000000000000000000000000000000815260040161246a906142f1565b60405180910390fd5b600061247e836114af565b90508073ffffffffffffffffffffffffffffffffffffffff168473ffffffffffffffffffffffffffffffffffffffff1614806124ed57508373ffffffffffffffffffffffffffffffffffffffff166124d584610bda565b73ffffffffffffffffffffffffffffffffffffffff16145b806124fe57506124fd8185611ff8565b5b91505092915050565b8273ffffffffffffffffffffffffffffffffffffffff16612527826114af565b73ffffffffffffffffffffffffffffffffffffffff161461257d576040517f08c379a000000000000000000000000000000000000000000000000000000000815260040161257490614271565b60405180910390fd5b600073ffffffffffffffffffffffffffffffffffffffff168273ffffffffffffffffffffffffffffffffffffffff1614156125ed576040517f08c379a00000000000000000000000000000000000000000000000000000000081526004016125e4906142b1565b60405180910390fd5b6125f8838383612cdb565b612603600082612370565b6001600360008573ffffffffffffffffffffffffffffffffffffffff1673ffffffffffffffffffffffffffffffffffffffff16815260200190815260200160002060008282546126539190614750565b925050819055506001600360008473ffffffffffffffffffffffffffffffffffffffff1673ffffffffffffffffffffffffffffffffffffffff16815260200190815260200160002060008282546126aa919061466f565b92505081905550816002600083815260200190815260200160002060006101000a81548173ffffffffffffffffffffffffffffffffffffffff021916908373ffffffffffffffffffffffffffffffffffffffff160217905550808273ffffffffffffffffffffffffffffffffffffffff168473ffffffffffffffffffffffffffffffffffffffff167fddf252ad1be2c89b69c2b068fc378daa952ba7f163c4a11628f55a4df523b3ef60405160405180910390a4612769838383612def565b505050565b60008261277b8584612df4565b1490509392505050565b61279f828260405180602001604052806000815250612e8f565b5050565b6000600a60009054906101000a900473ffffffffffffffffffffffffffffffffffffffff16905081600a60006101000a81548173ffffffffffffffffffffffffffffffffffffffff021916908373ffffffffffffffffffffffffffffffffffffffff1602179055508173ffffffffffffffffffffffffffffffffffffffff168173ffffffffffffffffffffffffffffffffffffffff167f8be0079c531659141344cd1fd0a4f28419497f9722a3daafe3b4186f6b6457e060405160405180910390a35050565b8173ffffffffffffffffffffffffffffffffffffffff168373ffffffffffffffffffffffffffffffffffffffff1614156128d8576040517f08c379a00000000000000000000000000000000000000000000000000000000081526004016128cf906142d1565b60405180910390fd5b80600560008573ffffffffffffffffffffffffffffffffffffffff1673ffffffffffffffffffffffffffffffffffffffff16815260200190815260200160002060008473ffffffffffffffffffffffffffffffffffffffff1673ffffffffffffffffffffffffffffffffffffffff16815260200190815260200160002060006101000a81548160ff0219169083151502179055508173ffffffffffffffffffffffffffffffffffffffff168373ffffffffffffffffffffffffffffffffffffffff167f17307eab39ab6107e8899845ad3d59bd9653f200f220920489ca2b5937696c31836040516129c991906141b9565b60405180910390a3505050565b6129e1848484612507565b6129ed84848484612eea565b612a2c576040517f08c379a0000000000000000000000000000000000000000000000000000000008152600401612a2390614231565b60405180910390fd5b50505050565b6060600b8054612a4190614844565b80601f0160208091040260200160405190810160405280929190818152602001828054612a6d90614844565b8015612aba5780601f10612a8f57610100808354040283529160200191612aba565b820191906000526020600020905b815481529060010190602001808311612a9d57829003601f168201915b5050505050905090565b60606000821415612b0c576040518060400160405280600181526020017f30000000000000000000000000000000000000000000000000000000000000008152509050612c6c565b600082905060005b60008214612b3e578080612b27906148a7565b915050600a82612b3791906146c5565b9150612b14565b60008167ffffffffffffffff811115612b80577f4e487b7100000000000000000000000000000000000000000000000000000000600052604160045260246000fd5b6040519080825280601f01601f191660200182016040528015612bb25781602001600182028036833780820191505090505b5090505b60008514612c6557600182612bcb9190614750565b9150600a85612bda9190614914565b6030612be6919061466f565b60f81b818381518110612c22577f4e487b7100000000000000000000000000000000000000000000000000000000600052603260045260246000fd5b60200101907effffffffffffffffffffffffffffffffffffffffffffffffffffffffffffff1916908160001a905350600a85612c5e91906146c5565b9450612bb6565b8093505050505b919050565b60007f01ffc9a7000000000000000000000000000000000000000000000000000000007bffffffffffffffffffffffffffffffffffffffffffffffffffffffff1916827bffffffffffffffffffffffffffffffffffffffffffffffffffffffff1916149050919050565b612ce6838383613081565b600073ffffffffffffffffffffffffffffffffffffffff168373ffffffffffffffffffffffffffffffffffffffff161415612d2957612d2481613086565b612d68565b8173ffffffffffffffffffffffffffffffffffffffff168373ffffffffffffffffffffffffffffffffffffffff1614612d6757612d6683826130cf565b5b5b600073ffffffffffffffffffffffffffffffffffffffff168273ffffffffffffffffffffffffffffffffffffffff161415612dab57612da68161323c565b612dea565b8273ffffffffffffffffffffffffffffffffffffffff168273ffffffffffffffffffffffffffffffffffffffff1614612de957612de8828261337f565b5b5b505050565b505050565b60008082905060005b8451811015612e84576000858281518110612e41577f4e487b7100000000000000000000000000000000000000000000000000000000600052603260045260246000fd5b60200260200101519050808311612e6357612e5c83826133fe565b9250612e70565b612e6d81846133fe565b92505b508080612e7c906148a7565b915050612dfd565b508091505092915050565b612e998383613415565b612ea66000848484612eea565b612ee5576040517f08c379a0000000000000000000000000000000000000000000000000000000008152600401612edc90614231565b60405180910390fd5b505050565b6000612f0b8473ffffffffffffffffffffffffffffffffffffffff166135ef565b15613074578373ffffffffffffffffffffffffffffffffffffffff1663150b7a02612f346122fc565b8786866040518563ffffffff1660e01b8152600401612f56949392919061414b565b602060405180830381600087803b158015612f7057600080fd5b505af1925050508015612fa157506040513d601f19601f82011682018060405250810190612f9e9190613ab4565b60015b613024573d8060008114612fd1576040519150601f19603f3d011682016040523d82523d6000602084013e612fd6565b606091505b5060008151141561301c576040517f08c379a000000000000000000000000000000000000000000000000000000000815260040161301390614231565b60405180910390fd5b805181602001fd5b63150b7a0260e01b7bffffffffffffffffffffffffffffffffffffffffffffffffffffffff1916817bffffffffffffffffffffffffffffffffffffffffffffffffffffffff191614915050613079565b600190505b949350505050565b505050565b6008805490506009600083815260200190815260200160002081905550600881908060018154018082558091505060019003906000526020600020016000909190919091505550565b600060016130dc846115ef565b6130e69190614750565b90506000600760008481526020019081526020016000205490508181146131cb576000600660008673ffffffffffffffffffffffffffffffffffffffff1673ffffffffffffffffffffffffffffffffffffffff168152602001908152602001600020600084815260200190815260200160002054905080600660008773ffffffffffffffffffffffffffffffffffffffff1673ffffffffffffffffffffffffffffffffffffffff168152602001908152602001600020600084815260200190815260200160002081905550816007600083815260200190815260200160002081905550505b6007600084815260200190815260200160002060009055600660008573ffffffffffffffffffffffffffffffffffffffff1673ffffffffffffffffffffffffffffffffffffffff16815260200190815260200160002060008381526020019081526020016000206000905550505050565b600060016008805490506132509190614750565b90506000600960008481526020019081526020016000205490506000600883815481106132a6577f4e487b7100000000000000000000000000000000000000000000000000000000600052603260045260246000fd5b9060005260206000200154905080600883815481106132ee577f4e487b7100000000000000000000000000000000000000000000000000000000600052603260045260246000fd5b906000526020600020018190555081600960008381526020019081526020016000208190555060096000858152602001908152602001600020600090556008805480613363577f4e487b7100000000000000000000000000000000000000000000000000000000600052603160045260246000fd5b6001900381819060005260206000200160009055905550505050565b600061338a836115ef565b905081600660008573ffffffffffffffffffffffffffffffffffffffff1673ffffffffffffffffffffffffffffffffffffffff168152602001908152602001600020600083815260200190815260200160002081905550806007600084815260200190815260200160002081905550505050565b600082600052816020526040600020905092915050565b600073ffffffffffffffffffffffffffffffffffffffff168273ffffffffffffffffffffffffffffffffffffffff161415613485576040517f08c379a000000000000000000000000000000000000000000000000000000000815260040161347c906143d1565b60405180910390fd5b61348e81612304565b156134ce576040517f08c379a00000000000000000000000000000000000000000000000000000000081526004016134c590614291565b60405180910390fd5b6134da60008383612cdb565b6001600360008473ffffffffffffffffffffffffffffffffffffffff1673ffffffffffffffffffffffffffffffffffffffff168152602001908152602001600020600082825461352a919061466f565b92505081905550816002600083815260200190815260200160002060006101000a81548173ffffffffffffffffffffffffffffffffffffffff021916908373ffffffffffffffffffffffffffffffffffffffff160217905550808273ffffffffffffffffffffffffffffffffffffffff16600073ffffffffffffffffffffffffffffffffffffffff167fddf252ad1be2c89b69c2b068fc378daa952ba7f163c4a11628f55a4df523b3ef60405160405180910390a46135eb60008383612def565b5050565b6000808273ffffffffffffffffffffffffffffffffffffffff163b119050919050565b82805461361e90614844565b90600052602060002090601f0160209004810192826136405760008555613687565b82601f1061365957805160ff1916838001178555613687565b82800160010185558215613687579182015b8281111561368657825182559160200191906001019061366b565b5b5090506136949190613698565b5090565b5b808211156136b1576000816000905550600101613699565b5090565b60006136c86136c384614571565b61454c565b9050828152602081018484840111156136e057600080fd5b6136eb848285614802565b509392505050565b6000613706613701846145a2565b61454c565b90508281526020810184848401111561371e57600080fd5b613729848285614802565b509392505050565b6000813590506137408161505d565b92915050565b60008083601f84011261375857600080fd5b8235905067ffffffffffffffff81111561377157600080fd5b60208301915083602082028301111561378957600080fd5b9250929050565b60008135905061379f81615074565b92915050565b6000813590506137b48161508b565b92915050565b6000813590506137c9816150a2565b92915050565b6000815190506137de816150a2565b92915050565b600082601f8301126137f557600080fd5b81356138058482602086016136b5565b91505092915050565b600082601f83011261381f57600080fd5b813561382f8482602086016136f3565b91505092915050565b600081359050613847816150b9565b92915050565b60006020828403121561385f57600080fd5b600061386d84828501613731565b91505092915050565b6000806040838503121561388957600080fd5b600061389785828601613731565b92505060206138a885828601613731565b9150509250929050565b6000806000606084860312156138c757600080fd5b60006138d586828701613731565b93505060206138e686828701613731565b92505060406138f786828701613838565b9150509250925092565b6000806000806080858703121561391757600080fd5b600061392587828801613731565b945050602061393687828801613731565b935050604061394787828801613838565b925050606085013567ffffffffffffffff81111561396457600080fd5b613970878288016137e4565b91505092959194509250565b6000806040838503121561398f57600080fd5b600061399d85828601613731565b92505060206139ae85828601613790565b9150509250929050565b600080604083850312156139cb57600080fd5b60006139d985828601613731565b92505060206139ea85828601613838565b9150509250929050565b60008060208385031215613a0757600080fd5b600083013567ffffffffffffffff811115613a2157600080fd5b613a2d85828601613746565b92509250509250929050565b600060208284031215613a4b57600080fd5b6000613a5984828501613790565b91505092915050565b600060208284031215613a7457600080fd5b6000613a82848285016137a5565b91505092915050565b600060208284031215613a9d57600080fd5b6000613aab848285016137ba565b91505092915050565b600060208284031215613ac657600080fd5b6000613ad4848285016137cf565b91505092915050565b600060208284031215613aef57600080fd5b600082013567ffffffffffffffff811115613b0957600080fd5b613b158482850161380e565b91505092915050565b600060208284031215613b3057600080fd5b6000613b3e84828501613838565b91505092915050565b6000613b5383836140b1565b60208301905092915050565b613b6881614784565b82525050565b613b7f613b7a82614784565b6148f0565b82525050565b6000613b90826145f8565b613b9a8185614626565b9350613ba5836145d3565b8060005b83811015613bd6578151613bbd8882613b47565b9750613bc883614619565b925050600181019050613ba9565b5085935050505092915050565b613bec81614796565b82525050565b613bfb816147a2565b82525050565b6000613c0c82614603565b613c168185614637565b9350613c26818560208601614811565b613c2f81614a01565b840191505092915050565b6000613c458261460e565b613c4f8185614653565b9350613c5f818560208601614811565b613c6881614a01565b840191505092915050565b6000613c7e8261460e565b613c888185614664565b9350613c98818560208601614811565b80840191505092915050565b60008154613cb181614844565b613cbb8186614664565b94506001821660008114613cd65760018114613ce757613d1a565b60ff19831686528186019350613d1a565b613cf0856145e3565b60005b83811015613d1257815481890152600182019150602081019050613cf3565b838801955050505b50505092915050565b6000613d30602b83614653565b9150613d3b82614a1f565b604082019050919050565b6000613d53603283614653565b9150613d5e82614a6e565b604082019050919050565b6000613d76602683614653565b9150613d8182614abd565b604082019050919050565b6000613d99602583614653565b9150613da482614b0c565b604082019050919050565b6000613dbc601c83614653565b9150613dc782614b5b565b602082019050919050565b6000613ddf602483614653565b9150613dea82614b84565b604082019050919050565b6000613e02601983614653565b9150613e0d82614bd3565b602082019050919050565b6000613e25602c83614653565b9150613e3082614bfc565b604082019050919050565b6000613e48601e83614653565b9150613e5382614c4b565b602082019050919050565b6000613e6b603883614653565b9150613e7682614c74565b604082019050919050565b6000613e8e602a83614653565b9150613e9982614cc3565b604082019050919050565b6000613eb1602983614653565b9150613ebc82614d12565b604082019050919050565b6000613ed4601683614653565b9150613edf82614d61565b602082019050919050565b6000613ef7602483614653565b9150613f0282614d8a565b604082019050919050565b6000613f1a602083614653565b9150613f2582614dd9565b602082019050919050565b6000613f3d602c83614653565b9150613f4882614e02565b604082019050919050565b6000613f60602083614653565b9150613f6b82614e51565b602082019050919050565b6000613f83601683614653565b9150613f8e82614e7a565b602082019050919050565b6000613fa6602f83614653565b9150613fb182614ea3565b604082019050919050565b6000613fc9602183614653565b9150613fd482614ef2565b604082019050919050565b6000613fec600083614648565b9150613ff782614f41565b600082019050919050565b600061400f601283614653565b915061401a82614f44565b602082019050919050565b6000614032603183614653565b915061403d82614f6d565b604082019050919050565b6000614055602c83614653565b915061406082614fbc565b604082019050919050565b6000614078601883614653565b91506140838261500b565b602082019050919050565b600061409b601b83614653565b91506140a682615034565b602082019050919050565b6140ba816147f8565b82525050565b6140c9816147f8565b82525050565b60006140db8284613b6e565b60148201915081905092915050565b60006140f68286613c73565b91506141028285613c73565b915061410e8284613ca4565b9150819050949350505050565b600061412682613fdf565b9150819050919050565b60006020820190506141456000830184613b5f565b92915050565b60006080820190506141606000830187613b5f565b61416d6020830186613b5f565b61417a60408301856140c0565b818103606083015261418c8184613c01565b905095945050505050565b600060208201905081810360008301526141b18184613b85565b905092915050565b60006020820190506141ce6000830184613be3565b92915050565b60006020820190506141e96000830184613bf2565b92915050565b600060208201905081810360008301526142098184613c3a565b905092915050565b6000602082019050818103600083015261422a81613d23565b9050919050565b6000602082019050818103600083015261424a81613d46565b9050919050565b6000602082019050818103600083015261426a81613d69565b9050919050565b6000602082019050818103600083015261428a81613d8c565b9050919050565b600060208201905081810360008301526142aa81613daf565b9050919050565b600060208201905081810360008301526142ca81613dd2565b9050919050565b600060208201905081810360008301526142ea81613df5565b9050919050565b6000602082019050818103600083015261430a81613e18565b9050919050565b6000602082019050818103600083015261432a81613e3b565b9050919050565b6000602082019050818103600083015261434a81613e5e565b9050919050565b6000602082019050818103600083015261436a81613e81565b9050919050565b6000602082019050818103600083015261438a81613ea4565b9050919050565b600060208201905081810360008301526143aa81613ec7565b9050919050565b600060208201905081810360008301526143ca81613eea565b9050919050565b600060208201905081810360008301526143ea81613f0d565b9050919050565b6000602082019050818103600083015261440a81613f30565b9050919050565b6000602082019050818103600083015261442a81613f53565b9050919050565b6000602082019050818103600083015261444a81613f76565b9050919050565b6000602082019050818103600083015261446a81613f99565b9050919050565b6000602082019050818103600083015261448a81613fbc565b9050919050565b600060208201905081810360008301526144aa81614002565b9050919050565b600060208201905081810360008301526144ca81614025565b9050919050565b600060208201905081810360008301526144ea81614048565b9050919050565b6000602082019050818103600083015261450a8161406b565b9050919050565b6000602082019050818103600083015261452a8161408e565b9050919050565b600060208201905061454660008301846140c0565b92915050565b6000614556614567565b90506145628282614876565b919050565b6000604051905090565b600067ffffffffffffffff82111561458c5761458b6149d2565b5b61459582614a01565b9050602081019050919050565b600067ffffffffffffffff8211156145bd576145bc6149d2565b5b6145c682614a01565b9050602081019050919050565b6000819050602082019050919050565b60008190508160005260206000209050919050565b600081519050919050565b600081519050919050565b600081519050919050565b6000602082019050919050565b600082825260208201905092915050565b600082825260208201905092915050565b600081905092915050565b600082825260208201905092915050565b600081905092915050565b600061467a826147f8565b9150614685836147f8565b9250827fffffffffffffffffffffffffffffffffffffffffffffffffffffffffffffffff038211156146ba576146b9614945565b5b828201905092915050565b60006146d0826147f8565b91506146db836147f8565b9250826146eb576146ea614974565b5b828204905092915050565b6000614701826147f8565b915061470c836147f8565b9250817fffffffffffffffffffffffffffffffffffffffffffffffffffffffffffffffff048311821515161561474557614744614945565b5b828202905092915050565b600061475b826147f8565b9150614766836147f8565b92508282101561477957614778614945565b5b828203905092915050565b600061478f826147d8565b9050919050565b60008115159050919050565b6000819050919050565b60007fffffffff0000000000000000000000000000000000000000000000000000000082169050919050565b600073ffffffffffffffffffffffffffffffffffffffff82169050919050565b6000819050919050565b82818337600083830152505050565b60005b8381101561482f578082015181840152602081019050614814565b8381111561483e576000848401525b50505050565b6000600282049050600182168061485c57607f821691505b602082108114156148705761486f6149a3565b5b50919050565b61487f82614a01565b810181811067ffffffffffffffff8211171561489e5761489d6149d2565b5b80604052505050565b60006148b2826147f8565b91507fffffffffffffffffffffffffffffffffffffffffffffffffffffffffffffffff8214156148e5576148e4614945565b5b600182019050919050565b60006148fb82614902565b9050919050565b600061490d82614a12565b9050919050565b600061491f826147f8565b915061492a836147f8565b92508261493a57614939614974565b5b828206905092915050565b7f4e487b7100000000000000000000000000000000000000000000000000000000600052601160045260246000fd5b7f4e487b7100000000000000000000000000000000000000000000000000000000600052601260045260246000fd5b7f4e487b7100000000000000000000000000000000000000000000000000000000600052602260045260246000fd5b7f4e487b7100000000000000000000000000000000000000000000000000000000600052604160045260246000fd5b6000601f19601f8301169050919050565b60008160601b9050919050565b7f455243373231456e756d657261626c653a206f776e657220696e646578206f7560008201527f74206f6620626f756e6473000000000000000000000000000000000000000000602082015250565b7f4552433732313a207472616e7366657220746f206e6f6e20455243373231526560008201527f63656976657220696d706c656d656e7465720000000000000000000000000000602082015250565b7f4f776e61626c653a206e6577206f776e657220697320746865207a65726f206160008201527f6464726573730000000000000000000000000000000000000000000000000000602082015250565b7f4552433732313a207472616e736665722066726f6d20696e636f72726563742060008201527f6f776e6572000000000000000000000000000000000000000000000000000000602082015250565b7f4552433732313a20746f6b656e20616c7265616479206d696e74656400000000600082015250565b7f4552433732313a207472616e7366657220746f20746865207a65726f2061646460008201527f7265737300000000000000000000000000000000000000000000000000000000602082015250565b7f4552433732313a20617070726f766520746f2063616c6c657200000000000000600082015250565b7f4552433732313a206f70657261746f7220717565727920666f72206e6f6e657860008201527f697374656e7420746f6b656e0000000000000000000000000000000000000000602082015250565b7f4164647265737320646f6573206e6f7420657869737420696e206c6973740000600082015250565b7f4552433732313a20617070726f76652063616c6c6572206973206e6f74206f7760008201527f6e6572206e6f7220617070726f76656420666f7220616c6c0000000000000000602082015250565b7f4552433732313a2062616c616e636520717565727920666f7220746865207a6560008201527f726f206164647265737300000000000000000000000000000000000000000000602082015250565b7f4552433732313a206f776e657220717565727920666f72206e6f6e657869737460008201527f656e7420746f6b656e0000000000000000000000000000000000000000000000602082015250565b7f6d6178204e4654206c696d697420657863656564656400000000000000000000600082015250565b7f6d6178206d696e7420616d6f756e74207065722073657373696f6e206578636560008201527f6564656400000000000000000000000000000000000000000000000000000000602082015250565b7f4552433732313a206d696e7420746f20746865207a65726f2061646472657373600082015250565b7f4552433732313a20617070726f76656420717565727920666f72206e6f6e657860008201527f697374656e7420746f6b656e0000000000000000000000000000000000000000602082015250565b7f4f776e61626c653a2063616c6c6572206973206e6f7420746865206f776e6572600082015250565b7f74686520636f6e74726163742069732070617573656400000000000000000000600082015250565b7f4552433732314d657461646174613a2055524920717565727920666f72206e6f60008201527f6e6578697374656e7420746f6b656e0000000000000000000000000000000000602082015250565b7f4552433732313a20617070726f76616c20746f2063757272656e74206f776e6560008201527f7200000000000000000000000000000000000000000000000000000000000000602082015250565b50565b7f696e73756666696369656e742066756e64730000000000000000000000000000600082015250565b7f4552433732313a207472616e736665722063616c6c6572206973206e6f74206f60008201527f776e6572206e6f7220617070726f766564000000000000000000000000000000602082015250565b7f455243373231456e756d657261626c653a20676c6f62616c20696e646578206f60008201527f7574206f6620626f756e64730000000000000000000000000000000000000000602082015250565b7f496e636f7272656374204554482076616c75652073656e740000000000000000600082015250565b7f6e65656420746f206d696e74206174206c656173742031204e46540000000000600082015250565b61506681614784565b811461507157600080fd5b50565b61507d81614796565b811461508857600080fd5b50565b615094816147a2565b811461509f57600080fd5b50565b6150ab816147ac565b81146150b657600080fd5b50565b6150c2816147f8565b81146150cd57600080fd5b5056fea2646970667358221220b6ff1eb87a5e22bbe27f92f4bde629a356f94302d1fdfeb9b724201e025e730b64736f6c63430008040033",
  "linkReferences": {},
  "deployedLinkReferences": {}
}