{
  "_format": "hh-sol-artifact-1",
  "contractName": "VALNFT",
  "sourceName": "contracts/VALNFT.sol",
  "abi": [
    {
      "inputs": [
        {
          "internalType": "string",
          "name": "baseURI",
          "type": "string"
        }
      ],
      "stateMutability": "nonpayable",
      "type": "constructor"
    },
    {
      "anonymous": false,
      "inputs": [
        {
          "indexed": true,
          "internalType": "address",
          "name": "owner",
          "type": "address"
        },
        {
          "indexed": true,
          "internalType": "address",
          "name": "approved",
          "type": "address"
        },
        {
          "indexed": true,
          "internalType": "uint256",
          "name": "tokenId",
          "type": "uint256"
        }
      ],
      "name": "Approval",
      "type": "event"
    },
    {
      "anonymous": false,
      "inputs": [
        {
          "indexed": true,
          "internalType": "address",
          "name": "owner",
          "type": "address"
        },
        {
          "indexed": true,
          "internalType": "address",
          "name": "operator",
          "type": "address"
        },
        {
          "indexed": false,
          "internalType": "bool",
          "name": "approved",
          "type": "bool"
        }
      ],
      "name": "ApprovalForAll",
      "type": "event"
    },
    {
      "anonymous": false,
      "inputs": [
        {
          "indexed": true,
          "internalType": "address",
          "name": "previousOwner",
          "type": "address"
        },
        {
          "indexed": true,
          "internalType": "address",
          "name": "newOwner",
          "type": "address"
        }
      ],
      "name": "OwnershipTransferred",
      "type": "event"
    },
    {
      "anonymous": false,
      "inputs": [
        {
          "indexed": true,
          "internalType": "address",
          "name": "from",
          "type": "address"
        },
        {
          "indexed": true,
          "internalType": "address",
          "name": "to",
          "type": "address"
        },
        {
          "indexed": true,
          "internalType": "uint256",
          "name": "tokenId",
          "type": "uint256"
        }
      ],
      "name": "Transfer",
      "type": "event"
    },
    {
      "inputs": [],
      "name": "MAX_PER_MINT",
      "outputs": [
        {
          "internalType": "uint256",
          "name": "",
          "type": "uint256"
        }
      ],
      "stateMutability": "view",
      "type": "function"
    },
    {
      "inputs": [],
      "name": "MAX_SUPPLY",
      "outputs": [
        {
          "internalType": "uint256",
          "name": "",
          "type": "uint256"
        }
      ],
      "stateMutability": "view",
      "type": "function"
    },
    {
      "inputs": [],
      "name": "PRICE",
      "outputs": [
        {
          "internalType": "uint256",
          "name": "",
          "type": "uint256"
        }
      ],
      "stateMutability": "view",
      "type": "function"
    },
    {
      "inputs": [
        {
          "internalType": "address",
          "name": "to",
          "type": "address"
        },
        {
          "internalType": "uint256",
          "name": "tokenId",
          "type": "uint256"
        }
      ],
      "name": "approve",
      "outputs": [],
      "stateMutability": "nonpayable",
      "type": "function"
    },
    {
      "inputs": [
        {
          "internalType": "address",
          "name": "owner",
          "type": "address"
        }
      ],
      "name": "balanceOf",
      "outputs": [
        {
          "internalType": "uint256",
          "name": "",
          "type": "uint256"
        }
      ],
      "stateMutability": "view",
      "type": "function"
    },
    {
      "inputs": [],
      "name": "baseTokenURI",
      "outputs": [
        {
          "internalType": "string",
          "name": "",
          "type": "string"
        }
      ],
      "stateMutability": "view",
      "type": "function"
    },
    {
      "inputs": [
        {
          "internalType": "uint256",
          "name": "tokenId",
          "type": "uint256"
        }
      ],
      "name": "getApproved",
      "outputs": [
        {
          "internalType": "address",
          "name": "",
          "type": "address"
        }
      ],
      "stateMutability": "view",
      "type": "function"
    },
    {
      "inputs": [
        {
          "internalType": "uint16",
          "name": "",
          "type": "uint16"
        }
      ],
      "name": "getMintedNft",
      "outputs": [],
      "stateMutability": "view",
      "type": "function"
    },
    {
      "inputs": [
        {
          "internalType": "address",
          "name": "owner",
          "type": "address"
        },
        {
          "internalType": "address",
          "name": "operator",
          "type": "address"
        }
      ],
      "name": "isApprovedForAll",
      "outputs": [
        {
          "internalType": "bool",
          "name": "",
          "type": "bool"
        }
      ],
      "stateMutability": "view",
      "type": "function"
    },
    {
      "inputs": [
        {
          "internalType": "uint256",
          "name": "_count",
          "type": "uint256"
        }
      ],
      "name": "mintNFTs",
      "outputs": [],
      "stateMutability": "payable",
      "type": "function"
    },
    {
      "inputs": [],
      "name": "mintednft",
      "outputs": [
        {
          "internalType": "uint16",
          "name": "",
          "type": "uint16"
        }
      ],
      "stateMutability": "view",
      "type": "function"
    },
    {
      "inputs": [],
      "name": "name",
      "outputs": [
        {
          "internalType": "string",
          "name": "",
          "type": "string"
        }
      ],
      "stateMutability": "view",
      "type": "function"
    },
    {
      "inputs": [],
      "name": "number",
      "outputs": [
        {
          "internalType": "uint256",
          "name": "",
          "type": "uint256"
        }
      ],
      "stateMutability": "view",
      "type": "function"
    },
    {
      "inputs": [],
      "name": "owner",
      "outputs": [
        {
          "internalType": "address",
          "name": "",
          "type": "address"
        }
      ],
      "stateMutability": "view",
      "type": "function"
    },
    {
      "inputs": [
        {
          "internalType": "uint256",
          "name": "tokenId",
          "type": "uint256"
        }
      ],
      "name": "ownerOf",
      "outputs": [
        {
          "internalType": "address",
          "name": "",
          "type": "address"
        }
      ],
      "stateMutability": "view",
      "type": "function"
    },
    {
      "inputs": [
        {
          "internalType": "bool",
          "name": "_state",
          "type": "bool"
        }
      ],
      "name": "pause",
      "outputs": [],
      "stateMutability": "nonpayable",
      "type": "function"
    },
    {
      "inputs": [],
      "name": "paused",
      "outputs": [
        {
          "internalType": "bool",
          "name": "",
          "type": "bool"
        }
      ],
      "stateMutability": "view",
      "type": "function"
    },
    {
      "inputs": [],
      "name": "renounceOwnership",
      "outputs": [],
      "stateMutability": "nonpayable",
      "type": "function"
    },
    {
      "inputs": [],
      "name": "reserveNFTs",
      "outputs": [],
      "stateMutability": "nonpayable",
      "type": "function"
    },
    {
      "inputs": [],
      "name": "reveal",
      "outputs": [],
      "stateMutability": "nonpayable",
      "type": "function"
    },
    {
      "inputs": [],
      "name": "revealed",
      "outputs": [
        {
          "internalType": "bool",
          "name": "",
          "type": "bool"
        }
      ],
      "stateMutability": "view",
      "type": "function"
    },
    {
      "inputs": [
        {
          "internalType": "address",
          "name": "from",
          "type": "address"
        },
        {
          "internalType": "address",
          "name": "to",
          "type": "address"
        },
        {
          "internalType": "uint256",
          "name": "tokenId",
          "type": "uint256"
        }
      ],
      "name": "safeTransferFrom",
      "outputs": [],
      "stateMutability": "nonpayable",
      "type": "function"
    },
    {
      "inputs": [
        {
          "internalType": "address",
          "name": "from",
          "type": "address"
        },
        {
          "internalType": "address",
          "name": "to",
          "type": "address"
        },
        {
          "internalType": "uint256",
          "name": "tokenId",
          "type": "uint256"
        },
        {
          "internalType": "bytes",
          "name": "_data",
          "type": "bytes"
        }
      ],
      "name": "safeTransferFrom",
      "outputs": [],
      "stateMutability": "nonpayable",
      "type": "function"
    },
    {
      "inputs": [
        {
          "internalType": "address",
          "name": "operator",
          "type": "address"
        },
        {
          "internalType": "bool",
          "name": "approved",
          "type": "bool"
        }
      ],
      "name": "setApprovalForAll",
      "outputs": [],
      "stateMutability": "nonpayable",
      "type": "function"
    },
    {
      "inputs": [
        {
          "internalType": "string",
          "name": "_baseTokenURI",
          "type": "string"
        }
      ],
      "name": "setBaseURI",
      "outputs": [],
      "stateMutability": "nonpayable",
      "type": "function"
    },
    {
      "inputs": [
        {
          "internalType": "uint256",
          "name": "_newCost",
          "type": "uint256"
        }
      ],
      "name": "setMintingPrice",
      "outputs": [],
      "stateMutability": "nonpayable",
      "type": "function"
    },
    {
      "inputs": [
        {
          "internalType": "bytes4",
          "name": "interfaceId",
          "type": "bytes4"
        }
      ],
      "name": "supportsInterface",
      "outputs": [
        {
          "internalType": "bool",
          "name": "",
          "type": "bool"
        }
      ],
      "stateMutability": "view",
      "type": "function"
    },
    {
      "inputs": [],
      "name": "symbol",
      "outputs": [
        {
          "internalType": "string",
          "name": "",
          "type": "string"
        }
      ],
      "stateMutability": "view",
      "type": "function"
    },
    {
      "inputs": [
        {
          "internalType": "uint256",
          "name": "index",
          "type": "uint256"
        }
      ],
      "name": "tokenByIndex",
      "outputs": [
        {
          "internalType": "uint256",
          "name": "",
          "type": "uint256"
        }
      ],
      "stateMutability": "view",
      "type": "function"
    },
    {
      "inputs": [
        {
          "internalType": "address",
          "name": "owner",
          "type": "address"
        },
        {
          "internalType": "uint256",
          "name": "index",
          "type": "uint256"
        }
      ],
      "name": "tokenOfOwnerByIndex",
      "outputs": [
        {
          "internalType": "uint256",
          "name": "",
          "type": "uint256"
        }
      ],
      "stateMutability": "view",
      "type": "function"
    },
    {
      "inputs": [
        {
          "internalType": "uint256",
          "name": "tokenId",
          "type": "uint256"
        }
      ],
      "name": "tokenURI",
      "outputs": [
        {
          "internalType": "string",
          "name": "",
          "type": "string"
        }
      ],
      "stateMutability": "view",
      "type": "function"
    },
    {
      "inputs": [
        {
          "internalType": "address",
          "name": "_owner",
          "type": "address"
        }
      ],
      "name": "tokensOfOwner",
      "outputs": [
        {
          "internalType": "uint256[]",
          "name": "",
          "type": "uint256[]"
        }
      ],
      "stateMutability": "view",
      "type": "function"
    },
    {
      "inputs": [],
      "name": "totalSupply",
      "outputs": [
        {
          "internalType": "uint256",
          "name": "",
          "type": "uint256"
        }
      ],
      "stateMutability": "view",
      "type": "function"
    },
    {
      "inputs": [
        {
          "internalType": "address",
          "name": "from",
          "type": "address"
        },
        {
          "internalType": "address",
          "name": "to",
          "type": "address"
        },
        {
          "internalType": "uint256",
          "name": "tokenId",
          "type": "uint256"
        }
      ],
      "name": "transferFrom",
      "outputs": [],
      "stateMutability": "nonpayable",
      "type": "function"
    },
    {
      "inputs": [
        {
          "internalType": "address",
          "name": "newOwner",
          "type": "address"
        }
      ],
      "name": "transferOwnership",
      "outputs": [],
      "stateMutability": "nonpayable",
      "type": "function"
    },
    {
      "inputs": [],
      "name": "withdraw",
      "outputs": [],
      "stateMutability": "payable",
      "type": "function"
    }
  ],
  "bytecode": "0x608060405266038d7ea4c68000600c556000600d60006101000a81548160ff0219169083151502179055506000600d60016101000a81548160ff0219169083151502179055506000600d60026101000a81548161ffff021916908361ffff160217905550600c600e553480156200007557600080fd5b5060405162004d5438038062004d5483398181016040528101906200009b919062000438565b6040518060400160405280600681526020017f56414c4e465400000000000000000000000000000000000000000000000000008152506040518060400160405280600481526020017f564e46540000000000000000000000000000000000000000000000000000000081525081600090805190602001906200011f92919062000316565b5080600190805190602001906200013892919062000316565b5050506200015b6200014f6200017360201b60201c565b6200017b60201b60201c565b6200016c816200024160201b60201c565b5062000670565b600033905090565b6000600a60009054906101000a900473ffffffffffffffffffffffffffffffffffffffff16905081600a60006101000a81548173ffffffffffffffffffffffffffffffffffffffff021916908373ffffffffffffffffffffffffffffffffffffffff1602179055508173ffffffffffffffffffffffffffffffffffffffff168173ffffffffffffffffffffffffffffffffffffffff167f8be0079c531659141344cd1fd0a4f28419497f9722a3daafe3b4186f6b6457e060405160405180910390a35050565b620002516200017360201b60201c565b73ffffffffffffffffffffffffffffffffffffffff1662000277620002ec60201b60201c565b73ffffffffffffffffffffffffffffffffffffffff1614620002d0576040517f08c379a0000000000000000000000000000000000000000000000000000000008152600401620002c790620004a4565b60405180910390fd5b80600f9080519060200190620002e892919062000316565b5050565b6000600a60009054906101000a900473ffffffffffffffffffffffffffffffffffffffff16905090565b82805462000324906200056c565b90600052602060002090601f01602090048101928262000348576000855562000394565b82601f106200036357805160ff191683800117855562000394565b8280016001018555821562000394579182015b828111156200039357825182559160200191906001019062000376565b5b509050620003a39190620003a7565b5090565b5b80821115620003c2576000816000905550600101620003a8565b5090565b6000620003dd620003d784620004ef565b620004c6565b905082815260208101848484011115620003f657600080fd5b6200040384828562000536565b509392505050565b600082601f8301126200041d57600080fd5b81516200042f848260208601620003c6565b91505092915050565b6000602082840312156200044b57600080fd5b600082015167ffffffffffffffff8111156200046657600080fd5b62000474848285016200040b565b91505092915050565b60006200048c60208362000525565b9150620004998262000647565b602082019050919050565b60006020820190508181036000830152620004bf816200047d565b9050919050565b6000620004d2620004e5565b9050620004e08282620005a2565b919050565b6000604051905090565b600067ffffffffffffffff8211156200050d576200050c62000607565b5b620005188262000636565b9050602081019050919050565b600082825260208201905092915050565b60005b838110156200055657808201518184015260208101905062000539565b8381111562000566576000848401525b50505050565b600060028204905060018216806200058557607f821691505b602082108114156200059c576200059b620005d8565b5b50919050565b620005ad8262000636565b810181811067ffffffffffffffff82111715620005cf57620005ce62000607565b5b80604052505050565b7f4e487b7100000000000000000000000000000000000000000000000000000000600052602260045260246000fd5b7f4e487b7100000000000000000000000000000000000000000000000000000000600052604160045260246000fd5b6000601f19601f8301169050919050565b7f4f776e61626c653a2063616c6c6572206973206e6f7420746865206f776e6572600082015250565b6146d480620006806000396000f3fe60806040526004361061020f5760003560e01c80636352211e1161011857806395d89b41116100a0578063c87b56dd1161006f578063c87b56dd1461074b578063d3eaff2f14610788578063d547cfb7146107b1578063e985e9c5146107dc578063f2fde38b146108195761020f565b806395d89b41146106b7578063a22cb465146106e2578063a475b5dd1461070b578063b88d4fde146107225761020f565b80638381f58a116100e75780638381f58a146105d05780638417b47f146105fb5780638462151c146106245780638d859f3e146106615780638da5cb5b1461068c5761020f565b80636352211e1461051457806370a0823114610551578063715018a61461058e57806378100d1e146105a55761020f565b80632f745c591161019b57806342842e0e1161016a57806342842e0e1461042f5780634f6ccce714610458578063518302271461049557806355f804b3146104c05780635c975abb146104e95761020f565b80632f745c59146103a157806332cb6b0c146103de5780633b4b1381146104095780633ccfd60b146104255761020f565b8063095ea7b3116101e2578063095ea7b3146102e257806309d42b301461030b578063144100c71461033657806318160ddd1461034d57806323b872dd146103785761020f565b806301ffc9a71461021457806302329a291461025157806306fdde031461027a578063081812fc146102a5575b600080fd5b34801561022057600080fd5b5061023b60048036038101906102369190613176565b610842565b60405161024891906137ec565b60405180910390f35b34801561025d57600080fd5b506102786004803603810190610273919061314d565b6108bc565b005b34801561028657600080fd5b5061028f610955565b60405161029c9190613807565b60405180910390f35b3480156102b157600080fd5b506102cc60048036038101906102c79190613232565b6109e7565b6040516102d99190613763565b60405180910390f35b3480156102ee57600080fd5b5061030960048036038101906103049190613111565b610a6c565b005b34801561031757600080fd5b50610320610b84565b60405161032d9190613b44565b60405180910390f35b34801561034257600080fd5b5061034b610b89565b005b34801561035957600080fd5b50610362610c94565b60405161036f9190613b44565b60405180910390f35b34801561038457600080fd5b5061039f600480360381019061039a919061300b565b610ca1565b005b3480156103ad57600080fd5b506103c860048036038101906103c39190613111565b610d01565b6040516103d59190613b44565b60405180910390f35b3480156103ea57600080fd5b506103f3610da6565b6040516104009190613b44565b60405180910390f35b610423600480360381019061041e9190613232565b610dab565b005b61042d610ee1565b005b34801561043b57600080fd5b506104566004803603810190610451919061300b565b611055565b005b34801561046457600080fd5b5061047f600480360381019061047a9190613232565b611075565b60405161048c9190613b44565b60405180910390f35b3480156104a157600080fd5b506104aa61110c565b6040516104b791906137ec565b60405180910390f35b3480156104cc57600080fd5b506104e760048036038101906104e291906131c8565b61111f565b005b3480156104f557600080fd5b506104fe6111b5565b60405161050b91906137ec565b60405180910390f35b34801561052057600080fd5b5061053b60048036038101906105369190613232565b6111c8565b6040516105489190613763565b60405180910390f35b34801561055d57600080fd5b5061057860048036038101906105739190612fa6565b61127a565b6040516105859190613b44565b60405180910390f35b34801561059a57600080fd5b506105a3611332565b005b3480156105b157600080fd5b506105ba6113ba565b6040516105c79190613b29565b60405180910390f35b3480156105dc57600080fd5b506105e56113ce565b6040516105f29190613b44565b60405180910390f35b34801561060757600080fd5b50610622600480360381019061061d9190613232565b6113d4565b005b34801561063057600080fd5b5061064b60048036038101906106469190612fa6565b61145a565b60405161065891906137ca565b60405180910390f35b34801561066d57600080fd5b50610676611554565b6040516106839190613b44565b60405180910390f35b34801561069857600080fd5b506106a161155a565b6040516106ae9190613763565b60405180910390f35b3480156106c357600080fd5b506106cc611584565b6040516106d99190613807565b60405180910390f35b3480156106ee57600080fd5b50610709600480360381019061070491906130d5565b611616565b005b34801561071757600080fd5b5061072061162c565b005b34801561072e57600080fd5b506107496004803603810190610744919061305a565b6116c5565b005b34801561075757600080fd5b50610772600480360381019061076d9190613232565b611727565b60405161077f9190613807565b60405180910390f35b34801561079457600080fd5b506107af60048036038101906107aa9190613209565b6117ce565b005b3480156107bd57600080fd5b506107c66117f7565b6040516107d39190613807565b60405180910390f35b3480156107e857600080fd5b5061080360048036038101906107fe9190612fcf565b611885565b60405161081091906137ec565b60405180910390f35b34801561082557600080fd5b50610840600480360381019061083b9190612fa6565b611919565b005b60007f780e9d63000000000000000000000000000000000000000000000000000000007bffffffffffffffffffffffffffffffffffffffffffffffffffffffff1916827bffffffffffffffffffffffffffffffffffffffffffffffffffffffff191614806108b557506108b482611a11565b5b9050919050565b6108c4611af3565b73ffffffffffffffffffffffffffffffffffffffff166108e261155a565b73ffffffffffffffffffffffffffffffffffffffff1614610938576040517f08c379a000000000000000000000000000000000000000000000000000000000815260040161092f90613a69565b60405180910390fd5b80600d60006101000a81548160ff02191690831515021790555050565b60606000805461096490613e46565b80601f016020809104026020016040519081016040528092919081815260200182805461099090613e46565b80156109dd5780601f106109b2576101008083540402835291602001916109dd565b820191906000526020600020905b8154815290600101906020018083116109c057829003601f168201915b5050505050905090565b60006109f282611afb565b610a31576040517f08c379a0000000000000000000000000000000000000000000000000000000008152600401610a2890613a49565b60405180910390fd5b6004600083815260200190815260200160002060009054906101000a900473ffffffffffffffffffffffffffffffffffffffff169050919050565b6000610a77826111c8565b90508073ffffffffffffffffffffffffffffffffffffffff168373ffffffffffffffffffffffffffffffffffffffff161415610ae8576040517f08c379a0000000000000000000000000000000000000000000000000000000008152600401610adf90613aa9565b60405180910390fd5b8073ffffffffffffffffffffffffffffffffffffffff16610b07611af3565b73ffffffffffffffffffffffffffffffffffffffff161480610b365750610b3581610b30611af3565b611885565b5b610b75576040517f08c379a0000000000000000000000000000000000000000000000000000000008152600401610b6c906139a9565b60405180910390fd5b610b7f8383611b67565b505050565b600381565b610b91611af3565b73ffffffffffffffffffffffffffffffffffffffff16610baf61155a565b73ffffffffffffffffffffffffffffffffffffffff1614610c05576040517f08c379a0000000000000000000000000000000000000000000000000000000008152600401610bfc90613a69565b60405180910390fd5b6000610c11600b611c20565b90506014610c29600183611c2e90919063ffffffff16565b10610c69576040517f08c379a0000000000000000000000000000000000000000000000000000000008152600401610c6090613829565b60405180910390fd5b60005b6001811015610c9057610c7d611c44565b8080610c8890613ea9565b915050610c6c565b5050565b6000600880549050905090565b610cb2610cac611af3565b82611c69565b610cf1576040517f08c379a0000000000000000000000000000000000000000000000000000000008152600401610ce890613ae9565b60405180910390fd5b610cfc838383611d47565b505050565b6000610d0c8361127a565b8210610d4d576040517f08c379a0000000000000000000000000000000000000000000000000000000008152600401610d4490613849565b60405180910390fd5b600660008473ffffffffffffffffffffffffffffffffffffffff1673ffffffffffffffffffffffffffffffffffffffff168152602001908152602001600020600083815260200190815260200160002054905092915050565b601481565b6000610db7600b611c20565b90506014610dce8383611c2e90919063ffffffff16565b1115610e0f576040517f08c379a0000000000000000000000000000000000000000000000000000000008152600401610e0690613949565b60405180910390fd5b600082118015610e20575060038211155b610e5f576040517f08c379a0000000000000000000000000000000000000000000000000000000008152600401610e5690613969565b60405180910390fd5b610e7482600c54611fae90919063ffffffff16565b341015610eb6576040517f08c379a0000000000000000000000000000000000000000000000000000000008152600401610ead90613929565b60405180910390fd5b60005b82811015610edc57610ec9611c44565b8080610ed490613ea9565b915050610eb9565b505050565b610ee9611af3565b73ffffffffffffffffffffffffffffffffffffffff16610f0761155a565b73ffffffffffffffffffffffffffffffffffffffff1614610f5d576040517f08c379a0000000000000000000000000000000000000000000000000000000008152600401610f5490613a69565b60405180910390fd5b600047905060008111610fa5576040517f08c379a0000000000000000000000000000000000000000000000000000000008152600401610f9c90613a29565b60405180910390fd5b60003373ffffffffffffffffffffffffffffffffffffffff1682604051610fcb9061374e565b60006040518083038185875af1925050503d8060008114611008576040519150601f19603f3d011682016040523d82523d6000602084013e61100d565b606091505b5050905080611051576040517f08c379a000000000000000000000000000000000000000000000000000000000815260040161104890613ac9565b60405180910390fd5b5050565b611070838383604051806020016040528060008152506116c5565b505050565b600061107f610c94565b82106110c0576040517f08c379a00000000000000000000000000000000000000000000000000000000081526004016110b790613b09565b60405180910390fd5b600882815481106110fa577f4e487b7100000000000000000000000000000000000000000000000000000000600052603260045260246000fd5b90600052602060002001549050919050565b600d60019054906101000a900460ff1681565b611127611af3565b73ffffffffffffffffffffffffffffffffffffffff1661114561155a565b73ffffffffffffffffffffffffffffffffffffffff161461119b576040517f08c379a000000000000000000000000000000000000000000000000000000000815260040161119290613a69565b60405180910390fd5b80600f90805190602001906111b1929190612db5565b5050565b600d60009054906101000a900460ff1681565b6000806002600084815260200190815260200160002060009054906101000a900473ffffffffffffffffffffffffffffffffffffffff169050600073ffffffffffffffffffffffffffffffffffffffff168173ffffffffffffffffffffffffffffffffffffffff161415611271576040517f08c379a0000000000000000000000000000000000000000000000000000000008152600401611268906139e9565b60405180910390fd5b80915050919050565b60008073ffffffffffffffffffffffffffffffffffffffff168273ffffffffffffffffffffffffffffffffffffffff1614156112eb576040517f08c379a00000000000000000000000000000000000000000000000000000000081526004016112e2906139c9565b60405180910390fd5b600360008373ffffffffffffffffffffffffffffffffffffffff1673ffffffffffffffffffffffffffffffffffffffff168152602001908152602001600020549050919050565b61133a611af3565b73ffffffffffffffffffffffffffffffffffffffff1661135861155a565b73ffffffffffffffffffffffffffffffffffffffff16146113ae576040517f08c379a00000000000000000000000000000000000000000000000000000000081526004016113a590613a69565b60405180910390fd5b6113b86000611fc4565b565b600d60029054906101000a900461ffff1681565b600e5481565b6113dc611af3565b73ffffffffffffffffffffffffffffffffffffffff166113fa61155a565b73ffffffffffffffffffffffffffffffffffffffff1614611450576040517f08c379a000000000000000000000000000000000000000000000000000000000815260040161144790613a69565b60405180910390fd5b80600c8190555050565b606060006114678361127a565b905060008167ffffffffffffffff8111156114ab577f4e487b7100000000000000000000000000000000000000000000000000000000600052604160045260246000fd5b6040519080825280602002602001820160405280156114d95781602001602082028036833780820191505090505b50905060005b82811015611549576114f18582610d01565b82828151811061152a577f4e487b7100000000000000000000000000000000000000000000000000000000600052603260045260246000fd5b602002602001018181525050808061154190613ea9565b9150506114df565b508092505050919050565b600c5481565b6000600a60009054906101000a900473ffffffffffffffffffffffffffffffffffffffff16905090565b60606001805461159390613e46565b80601f01602080910402602001604051908101604052809291908181526020018280546115bf90613e46565b801561160c5780601f106115e15761010080835404028352916020019161160c565b820191906000526020600020905b8154815290600101906020018083116115ef57829003601f168201915b5050505050905090565b611628611621611af3565b838361208a565b5050565b611634611af3565b73ffffffffffffffffffffffffffffffffffffffff1661165261155a565b73ffffffffffffffffffffffffffffffffffffffff16146116a8576040517f08c379a000000000000000000000000000000000000000000000000000000000815260040161169f90613a69565b60405180910390fd5b6001600d60016101000a81548160ff021916908315150217905550565b6116d66116d0611af3565b83611c69565b611715576040517f08c379a000000000000000000000000000000000000000000000000000000000815260040161170c90613ae9565b60405180910390fd5b611721848484846121f7565b50505050565b606061173282611afb565b611771576040517f08c379a000000000000000000000000000000000000000000000000000000000815260040161176890613a89565b60405180910390fd5b600061177b612253565b9050600081511161179b57604051806020016040528060008152506117c6565b806117a5846122e5565b6040516020016117b692919061372a565b6040516020818303038152906040525b915050919050565b60006117da600b611c20565b9050600d60029054906101000a900461ffff1661ffff1690505050565b600f805461180490613e46565b80601f016020809104026020016040519081016040528092919081815260200182805461183090613e46565b801561187d5780601f106118525761010080835404028352916020019161187d565b820191906000526020600020905b81548152906001019060200180831161186057829003601f168201915b505050505081565b6000600560008473ffffffffffffffffffffffffffffffffffffffff1673ffffffffffffffffffffffffffffffffffffffff16815260200190815260200160002060008373ffffffffffffffffffffffffffffffffffffffff1673ffffffffffffffffffffffffffffffffffffffff16815260200190815260200160002060009054906101000a900460ff16905092915050565b611921611af3565b73ffffffffffffffffffffffffffffffffffffffff1661193f61155a565b73ffffffffffffffffffffffffffffffffffffffff1614611995576040517f08c379a000000000000000000000000000000000000000000000000000000000815260040161198c90613a69565b60405180910390fd5b600073ffffffffffffffffffffffffffffffffffffffff168173ffffffffffffffffffffffffffffffffffffffff161415611a05576040517f08c379a00000000000000000000000000000000000000000000000000000000081526004016119fc90613889565b60405180910390fd5b611a0e81611fc4565b50565b60007f80ac58cd000000000000000000000000000000000000000000000000000000007bffffffffffffffffffffffffffffffffffffffffffffffffffffffff1916827bffffffffffffffffffffffffffffffffffffffffffffffffffffffff19161480611adc57507f5b5e139f000000000000000000000000000000000000000000000000000000007bffffffffffffffffffffffffffffffffffffffffffffffffffffffff1916827bffffffffffffffffffffffffffffffffffffffffffffffffffffffff1916145b80611aec5750611aeb82612492565b5b9050919050565b600033905090565b60008073ffffffffffffffffffffffffffffffffffffffff166002600084815260200190815260200160002060009054906101000a900473ffffffffffffffffffffffffffffffffffffffff1673ffffffffffffffffffffffffffffffffffffffff1614159050919050565b816004600083815260200190815260200160002060006101000a81548173ffffffffffffffffffffffffffffffffffffffff021916908373ffffffffffffffffffffffffffffffffffffffff160217905550808273ffffffffffffffffffffffffffffffffffffffff16611bda836111c8565b73ffffffffffffffffffffffffffffffffffffffff167f8c5be1e5ebec7d5bd14f71427d1e84f3dd0314c0f7b2291e5b200ac8c7c3b92560405160405180910390a45050565b600081600001549050919050565b60008183611c3c9190613c6d565b905092915050565b6000611c50600b611c20565b9050611c5c33826124fc565b611c66600b61251a565b50565b6000611c7482611afb565b611cb3576040517f08c379a0000000000000000000000000000000000000000000000000000000008152600401611caa90613989565b60405180910390fd5b6000611cbe836111c8565b90508073ffffffffffffffffffffffffffffffffffffffff168473ffffffffffffffffffffffffffffffffffffffff161480611d2d57508373ffffffffffffffffffffffffffffffffffffffff16611d15846109e7565b73ffffffffffffffffffffffffffffffffffffffff16145b80611d3e5750611d3d8185611885565b5b91505092915050565b8273ffffffffffffffffffffffffffffffffffffffff16611d67826111c8565b73ffffffffffffffffffffffffffffffffffffffff1614611dbd576040517f08c379a0000000000000000000000000000000000000000000000000000000008152600401611db4906138a9565b60405180910390fd5b600073ffffffffffffffffffffffffffffffffffffffff168273ffffffffffffffffffffffffffffffffffffffff161415611e2d576040517f08c379a0000000000000000000000000000000000000000000000000000000008152600401611e24906138e9565b60405180910390fd5b611e38838383612530565b611e43600082611b67565b6001600360008573ffffffffffffffffffffffffffffffffffffffff1673ffffffffffffffffffffffffffffffffffffffff1681526020019081526020016000206000828254611e939190613d4e565b925050819055506001600360008473ffffffffffffffffffffffffffffffffffffffff1673ffffffffffffffffffffffffffffffffffffffff1681526020019081526020016000206000828254611eea9190613c6d565b92505081905550816002600083815260200190815260200160002060006101000a81548173ffffffffffffffffffffffffffffffffffffffff021916908373ffffffffffffffffffffffffffffffffffffffff160217905550808273ffffffffffffffffffffffffffffffffffffffff168473ffffffffffffffffffffffffffffffffffffffff167fddf252ad1be2c89b69c2b068fc378daa952ba7f163c4a11628f55a4df523b3ef60405160405180910390a4611fa9838383612644565b505050565b60008183611fbc9190613cf4565b905092915050565b6000600a60009054906101000a900473ffffffffffffffffffffffffffffffffffffffff16905081600a60006101000a81548173ffffffffffffffffffffffffffffffffffffffff021916908373ffffffffffffffffffffffffffffffffffffffff1602179055508173ffffffffffffffffffffffffffffffffffffffff168173ffffffffffffffffffffffffffffffffffffffff167f8be0079c531659141344cd1fd0a4f28419497f9722a3daafe3b4186f6b6457e060405160405180910390a35050565b8173ffffffffffffffffffffffffffffffffffffffff168373ffffffffffffffffffffffffffffffffffffffff1614156120f9576040517f08c379a00000000000000000000000000000000000000000000000000000000081526004016120f090613909565b60405180910390fd5b80600560008573ffffffffffffffffffffffffffffffffffffffff1673ffffffffffffffffffffffffffffffffffffffff16815260200190815260200160002060008473ffffffffffffffffffffffffffffffffffffffff1673ffffffffffffffffffffffffffffffffffffffff16815260200190815260200160002060006101000a81548160ff0219169083151502179055508173ffffffffffffffffffffffffffffffffffffffff168373ffffffffffffffffffffffffffffffffffffffff167f17307eab39ab6107e8899845ad3d59bd9653f200f220920489ca2b5937696c31836040516121ea91906137ec565b60405180910390a3505050565b612202848484611d47565b61220e84848484612649565b61224d576040517f08c379a000000000000000000000000000000000000000000000000000000000815260040161224490613869565b60405180910390fd5b50505050565b6060600f805461226290613e46565b80601f016020809104026020016040519081016040528092919081815260200182805461228e90613e46565b80156122db5780601f106122b0576101008083540402835291602001916122db565b820191906000526020600020905b8154815290600101906020018083116122be57829003601f168201915b5050505050905090565b6060600082141561232d576040518060400160405280600181526020017f3000000000000000000000000000000000000000000000000000000000000000815250905061248d565b600082905060005b6000821461235f57808061234890613ea9565b915050600a826123589190613cc3565b9150612335565b60008167ffffffffffffffff8111156123a1577f4e487b7100000000000000000000000000000000000000000000000000000000600052604160045260246000fd5b6040519080825280601f01601f1916602001820160405280156123d35781602001600182028036833780820191505090505b5090505b60008514612486576001826123ec9190613d4e565b9150600a856123fb9190613ef2565b60306124079190613c6d565b60f81b818381518110612443577f4e487b7100000000000000000000000000000000000000000000000000000000600052603260045260246000fd5b60200101907effffffffffffffffffffffffffffffffffffffffffffffffffffffffffffff1916908160001a905350600a8561247f9190613cc3565b94506123d7565b8093505050505b919050565b60007f01ffc9a7000000000000000000000000000000000000000000000000000000007bffffffffffffffffffffffffffffffffffffffffffffffffffffffff1916827bffffffffffffffffffffffffffffffffffffffffffffffffffffffff1916149050919050565b6125168282604051806020016040528060008152506127e0565b5050565b6001816000016000828254019250508190555050565b61253b83838361283b565b600073ffffffffffffffffffffffffffffffffffffffff168373ffffffffffffffffffffffffffffffffffffffff16141561257e5761257981612840565b6125bd565b8173ffffffffffffffffffffffffffffffffffffffff168373ffffffffffffffffffffffffffffffffffffffff16146125bc576125bb8382612889565b5b5b600073ffffffffffffffffffffffffffffffffffffffff168273ffffffffffffffffffffffffffffffffffffffff161415612600576125fb816129f6565b61263f565b8273ffffffffffffffffffffffffffffffffffffffff168273ffffffffffffffffffffffffffffffffffffffff161461263e5761263d8282612b39565b5b5b505050565b505050565b600061266a8473ffffffffffffffffffffffffffffffffffffffff16612bb8565b156127d3578373ffffffffffffffffffffffffffffffffffffffff1663150b7a02612693611af3565b8786866040518563ffffffff1660e01b81526004016126b5949392919061377e565b602060405180830381600087803b1580156126cf57600080fd5b505af192505050801561270057506040513d601f19601f820116820180604052508101906126fd919061319f565b60015b612783573d8060008114612730576040519150601f19603f3d011682016040523d82523d6000602084013e612735565b606091505b5060008151141561277b576040517f08c379a000000000000000000000000000000000000000000000000000000000815260040161277290613869565b60405180910390fd5b805181602001fd5b63150b7a0260e01b7bffffffffffffffffffffffffffffffffffffffffffffffffffffffff1916817bffffffffffffffffffffffffffffffffffffffffffffffffffffffff1916149150506127d8565b600190505b949350505050565b6127ea8383612bdb565b6127f76000848484612649565b612836576040517f08c379a000000000000000000000000000000000000000000000000000000000815260040161282d90613869565b60405180910390fd5b505050565b505050565b6008805490506009600083815260200190815260200160002081905550600881908060018154018082558091505060019003906000526020600020016000909190919091505550565b600060016128968461127a565b6128a09190613d4e565b9050600060076000848152602001908152602001600020549050818114612985576000600660008673ffffffffffffffffffffffffffffffffffffffff1673ffffffffffffffffffffffffffffffffffffffff168152602001908152602001600020600084815260200190815260200160002054905080600660008773ffffffffffffffffffffffffffffffffffffffff1673ffffffffffffffffffffffffffffffffffffffff168152602001908152602001600020600084815260200190815260200160002081905550816007600083815260200190815260200160002081905550505b6007600084815260200190815260200160002060009055600660008573ffffffffffffffffffffffffffffffffffffffff1673ffffffffffffffffffffffffffffffffffffffff16815260200190815260200160002060008381526020019081526020016000206000905550505050565b60006001600880549050612a0a9190613d4e565b9050600060096000848152602001908152602001600020549050600060088381548110612a60577f4e487b7100000000000000000000000000000000000000000000000000000000600052603260045260246000fd5b906000526020600020015490508060088381548110612aa8577f4e487b7100000000000000000000000000000000000000000000000000000000600052603260045260246000fd5b906000526020600020018190555081600960008381526020019081526020016000208190555060096000858152602001908152602001600020600090556008805480612b1d577f4e487b7100000000000000000000000000000000000000000000000000000000600052603160045260246000fd5b6001900381819060005260206000200160009055905550505050565b6000612b448361127a565b905081600660008573ffffffffffffffffffffffffffffffffffffffff1673ffffffffffffffffffffffffffffffffffffffff168152602001908152602001600020600083815260200190815260200160002081905550806007600084815260200190815260200160002081905550505050565b6000808273ffffffffffffffffffffffffffffffffffffffff163b119050919050565b600073ffffffffffffffffffffffffffffffffffffffff168273ffffffffffffffffffffffffffffffffffffffff161415612c4b576040517f08c379a0000000000000000000000000000000000000000000000000000000008152600401612c4290613a09565b60405180910390fd5b612c5481611afb565b15612c94576040517f08c379a0000000000000000000000000000000000000000000000000000000008152600401612c8b906138c9565b60405180910390fd5b612ca060008383612530565b6001600360008473ffffffffffffffffffffffffffffffffffffffff1673ffffffffffffffffffffffffffffffffffffffff1681526020019081526020016000206000828254612cf09190613c6d565b92505081905550816002600083815260200190815260200160002060006101000a81548173ffffffffffffffffffffffffffffffffffffffff021916908373ffffffffffffffffffffffffffffffffffffffff160217905550808273ffffffffffffffffffffffffffffffffffffffff16600073ffffffffffffffffffffffffffffffffffffffff167fddf252ad1be2c89b69c2b068fc378daa952ba7f163c4a11628f55a4df523b3ef60405160405180910390a4612db160008383612644565b5050565b828054612dc190613e46565b90600052602060002090601f016020900481019282612de35760008555612e2a565b82601f10612dfc57805160ff1916838001178555612e2a565b82800160010185558215612e2a579182015b82811115612e29578251825591602001919060010190612e0e565b5b509050612e379190612e3b565b5090565b5b80821115612e54576000816000905550600101612e3c565b5090565b6000612e6b612e6684613b84565b613b5f565b905082815260208101848484011115612e8357600080fd5b612e8e848285613e04565b509392505050565b6000612ea9612ea484613bb5565b613b5f565b905082815260208101848484011115612ec157600080fd5b612ecc848285613e04565b509392505050565b600081359050612ee38161462b565b92915050565b600081359050612ef881614642565b92915050565b600081359050612f0d81614659565b92915050565b600081519050612f2281614659565b92915050565b600082601f830112612f3957600080fd5b8135612f49848260208601612e58565b91505092915050565b600082601f830112612f6357600080fd5b8135612f73848260208601612e96565b91505092915050565b600081359050612f8b81614670565b92915050565b600081359050612fa081614687565b92915050565b600060208284031215612fb857600080fd5b6000612fc684828501612ed4565b91505092915050565b60008060408385031215612fe257600080fd5b6000612ff085828601612ed4565b925050602061300185828601612ed4565b9150509250929050565b60008060006060848603121561302057600080fd5b600061302e86828701612ed4565b935050602061303f86828701612ed4565b925050604061305086828701612f91565b9150509250925092565b6000806000806080858703121561307057600080fd5b600061307e87828801612ed4565b945050602061308f87828801612ed4565b93505060406130a087828801612f91565b925050606085013567ffffffffffffffff8111156130bd57600080fd5b6130c987828801612f28565b91505092959194509250565b600080604083850312156130e857600080fd5b60006130f685828601612ed4565b925050602061310785828601612ee9565b9150509250929050565b6000806040838503121561312457600080fd5b600061313285828601612ed4565b925050602061314385828601612f91565b9150509250929050565b60006020828403121561315f57600080fd5b600061316d84828501612ee9565b91505092915050565b60006020828403121561318857600080fd5b600061319684828501612efe565b91505092915050565b6000602082840312156131b157600080fd5b60006131bf84828501612f13565b91505092915050565b6000602082840312156131da57600080fd5b600082013567ffffffffffffffff8111156131f457600080fd5b61320084828501612f52565b91505092915050565b60006020828403121561321b57600080fd5b600061322984828501612f7c565b91505092915050565b60006020828403121561324457600080fd5b600061325284828501612f91565b91505092915050565b6000613267838361370c565b60208301905092915050565b61327c81613d82565b82525050565b600061328d82613bf6565b6132978185613c24565b93506132a283613be6565b8060005b838110156132d35781516132ba888261325b565b97506132c583613c17565b9250506001810190506132a6565b5085935050505092915050565b6132e981613d94565b82525050565b60006132fa82613c01565b6133048185613c35565b9350613314818560208601613e13565b61331d81613fdf565b840191505092915050565b600061333382613c0c565b61333d8185613c51565b935061334d818560208601613e13565b61335681613fdf565b840191505092915050565b600061336c82613c0c565b6133768185613c62565b9350613386818560208601613e13565b80840191505092915050565b600061339f601f83613c51565b91506133aa82613ff0565b602082019050919050565b60006133c2602b83613c51565b91506133cd82614019565b604082019050919050565b60006133e5603283613c51565b91506133f082614068565b604082019050919050565b6000613408602683613c51565b9150613413826140b7565b604082019050919050565b600061342b602583613c51565b915061343682614106565b604082019050919050565b600061344e601c83613c51565b915061345982614155565b602082019050919050565b6000613471602483613c51565b915061347c8261417e565b604082019050919050565b6000613494601983613c51565b915061349f826141cd565b602082019050919050565b60006134b7602283613c51565b91506134c2826141f6565b604082019050919050565b60006134da601583613c51565b91506134e582614245565b602082019050919050565b60006134fd602583613c51565b91506135088261426e565b604082019050919050565b6000613520602c83613c51565b915061352b826142bd565b604082019050919050565b6000613543603883613c51565b915061354e8261430c565b604082019050919050565b6000613566602a83613c51565b91506135718261435b565b604082019050919050565b6000613589602983613c51565b9150613594826143aa565b604082019050919050565b60006135ac602083613c51565b91506135b7826143f9565b602082019050919050565b60006135cf601983613c51565b91506135da82614422565b602082019050919050565b60006135f2602c83613c51565b91506135fd8261444b565b604082019050919050565b6000613615602083613c51565b91506136208261449a565b602082019050919050565b6000613638602f83613c51565b9150613643826144c3565b604082019050919050565b600061365b602183613c51565b915061366682614512565b604082019050919050565b600061367e600083613c46565b915061368982614561565b600082019050919050565b60006136a1601083613c51565b91506136ac82614564565b602082019050919050565b60006136c4603183613c51565b91506136cf8261458d565b604082019050919050565b60006136e7602c83613c51565b91506136f2826145dc565b604082019050919050565b61370681613dcc565b82525050565b61371581613dfa565b82525050565b61372481613dfa565b82525050565b60006137368285613361565b91506137428284613361565b91508190509392505050565b600061375982613671565b9150819050919050565b60006020820190506137786000830184613273565b92915050565b60006080820190506137936000830187613273565b6137a06020830186613273565b6137ad604083018561371b565b81810360608301526137bf81846132ef565b905095945050505050565b600060208201905081810360008301526137e48184613282565b905092915050565b600060208201905061380160008301846132e0565b92915050565b600060208201905081810360008301526138218184613328565b905092915050565b6000602082019050818103600083015261384281613392565b9050919050565b60006020820190508181036000830152613862816133b5565b9050919050565b60006020820190508181036000830152613882816133d8565b9050919050565b600060208201905081810360008301526138a2816133fb565b9050919050565b600060208201905081810360008301526138c28161341e565b9050919050565b600060208201905081810360008301526138e281613441565b9050919050565b6000602082019050818103600083015261390281613464565b9050919050565b6000602082019050818103600083015261392281613487565b9050919050565b60006020820190508181036000830152613942816134aa565b9050919050565b60006020820190508181036000830152613962816134cd565b9050919050565b60006020820190508181036000830152613982816134f0565b9050919050565b600060208201905081810360008301526139a281613513565b9050919050565b600060208201905081810360008301526139c281613536565b9050919050565b600060208201905081810360008301526139e281613559565b9050919050565b60006020820190508181036000830152613a028161357c565b9050919050565b60006020820190508181036000830152613a228161359f565b9050919050565b60006020820190508181036000830152613a42816135c2565b9050919050565b60006020820190508181036000830152613a62816135e5565b9050919050565b60006020820190508181036000830152613a8281613608565b9050919050565b60006020820190508181036000830152613aa28161362b565b9050919050565b60006020820190508181036000830152613ac28161364e565b9050919050565b60006020820190508181036000830152613ae281613694565b9050919050565b60006020820190508181036000830152613b02816136b7565b9050919050565b60006020820190508181036000830152613b22816136da565b9050919050565b6000602082019050613b3e60008301846136fd565b92915050565b6000602082019050613b59600083018461371b565b92915050565b6000613b69613b7a565b9050613b758282613e78565b919050565b6000604051905090565b600067ffffffffffffffff821115613b9f57613b9e613fb0565b5b613ba882613fdf565b9050602081019050919050565b600067ffffffffffffffff821115613bd057613bcf613fb0565b5b613bd982613fdf565b9050602081019050919050565b6000819050602082019050919050565b600081519050919050565b600081519050919050565b600081519050919050565b6000602082019050919050565b600082825260208201905092915050565b600082825260208201905092915050565b600081905092915050565b600082825260208201905092915050565b600081905092915050565b6000613c7882613dfa565b9150613c8383613dfa565b9250827fffffffffffffffffffffffffffffffffffffffffffffffffffffffffffffffff03821115613cb857613cb7613f23565b5b828201905092915050565b6000613cce82613dfa565b9150613cd983613dfa565b925082613ce957613ce8613f52565b5b828204905092915050565b6000613cff82613dfa565b9150613d0a83613dfa565b9250817fffffffffffffffffffffffffffffffffffffffffffffffffffffffffffffffff0483118215151615613d4357613d42613f23565b5b828202905092915050565b6000613d5982613dfa565b9150613d6483613dfa565b925082821015613d7757613d76613f23565b5b828203905092915050565b6000613d8d82613dda565b9050919050565b60008115159050919050565b60007fffffffff0000000000000000000000000000000000000000000000000000000082169050919050565b600061ffff82169050919050565b600073ffffffffffffffffffffffffffffffffffffffff82169050919050565b6000819050919050565b82818337600083830152505050565b60005b83811015613e31578082015181840152602081019050613e16565b83811115613e40576000848401525b50505050565b60006002820490506001821680613e5e57607f821691505b60208210811415613e7257613e71613f81565b5b50919050565b613e8182613fdf565b810181811067ffffffffffffffff82111715613ea057613e9f613fb0565b5b80604052505050565b6000613eb482613dfa565b91507fffffffffffffffffffffffffffffffffffffffffffffffffffffffffffffffff821415613ee757613ee6613f23565b5b600182019050919050565b6000613efd82613dfa565b9150613f0883613dfa565b925082613f1857613f17613f52565b5b828206905092915050565b7f4e487b7100000000000000000000000000000000000000000000000000000000600052601160045260246000fd5b7f4e487b7100000000000000000000000000000000000000000000000000000000600052601260045260246000fd5b7f4e487b7100000000000000000000000000000000000000000000000000000000600052602260045260246000fd5b7f4e487b7100000000000000000000000000000000000000000000000000000000600052604160045260246000fd5b6000601f19601f8301169050919050565b7f4e6f7420656e6f756768204e465473206c65667420746f207265736572766500600082015250565b7f455243373231456e756d657261626c653a206f776e657220696e646578206f7560008201527f74206f6620626f756e6473000000000000000000000000000000000000000000602082015250565b7f4552433732313a207472616e7366657220746f206e6f6e20455243373231526560008201527f63656976657220696d706c656d656e7465720000000000000000000000000000602082015250565b7f4f776e61626c653a206e6577206f776e657220697320746865207a65726f206160008201527f6464726573730000000000000000000000000000000000000000000000000000602082015250565b7f4552433732313a207472616e736665722066726f6d20696e636f72726563742060008201527f6f776e6572000000000000000000000000000000000000000000000000000000602082015250565b7f4552433732313a20746f6b656e20616c7265616479206d696e74656400000000600082015250565b7f4552433732313a207472616e7366657220746f20746865207a65726f2061646460008201527f7265737300000000000000000000000000000000000000000000000000000000602082015250565b7f4552433732313a20617070726f766520746f2063616c6c657200000000000000600082015250565b7f4e6f7420656e6f75676820657468657220746f207075726368617365204e465460008201527f732e000000000000000000000000000000000000000000000000000000000000602082015250565b7f4e6f7420656e6f756768204e465473206c656674210000000000000000000000600082015250565b7f43616e6e6f74206d696e7420737065636966696564206e756d626572206f662060008201527f4e4654732e000000000000000000000000000000000000000000000000000000602082015250565b7f4552433732313a206f70657261746f7220717565727920666f72206e6f6e657860008201527f697374656e7420746f6b656e0000000000000000000000000000000000000000602082015250565b7f4552433732313a20617070726f76652063616c6c6572206973206e6f74206f7760008201527f6e6572206e6f7220617070726f76656420666f7220616c6c0000000000000000602082015250565b7f4552433732313a2062616c616e636520717565727920666f7220746865207a6560008201527f726f206164647265737300000000000000000000000000000000000000000000602082015250565b7f4552433732313a206f776e657220717565727920666f72206e6f6e657869737460008201527f656e7420746f6b656e0000000000000000000000000000000000000000000000602082015250565b7f4552433732313a206d696e7420746f20746865207a65726f2061646472657373600082015250565b7f4e6f206574686572206c65667420746f20776974686472617700000000000000600082015250565b7f4552433732313a20617070726f76656420717565727920666f72206e6f6e657860008201527f697374656e7420746f6b656e0000000000000000000000000000000000000000602082015250565b7f4f776e61626c653a2063616c6c6572206973206e6f7420746865206f776e6572600082015250565b7f4552433732314d657461646174613a2055524920717565727920666f72206e6f60008201527f6e6578697374656e7420746f6b656e0000000000000000000000000000000000602082015250565b7f4552433732313a20617070726f76616c20746f2063757272656e74206f776e6560008201527f7200000000000000000000000000000000000000000000000000000000000000602082015250565b50565b7f5472616e73666572206661696c65642e00000000000000000000000000000000600082015250565b7f4552433732313a207472616e736665722063616c6c6572206973206e6f74206f60008201527f776e6572206e6f7220617070726f766564000000000000000000000000000000602082015250565b7f455243373231456e756d657261626c653a20676c6f62616c20696e646578206f60008201527f7574206f6620626f756e64730000000000000000000000000000000000000000602082015250565b61463481613d82565b811461463f57600080fd5b50565b61464b81613d94565b811461465657600080fd5b50565b61466281613da0565b811461466d57600080fd5b50565b61467981613dcc565b811461468457600080fd5b50565b61469081613dfa565b811461469b57600080fd5b5056fea2646970667358221220134a95d1f8e3194885ed10322d91c0c185751959aa7889f9e94f613d13128d4e64736f6c63430008040033",
  "linkReferences": {},
  "deployedLinkReferences": {}
}